:020000040800F2
:1000000008040020D1000008950100083D01000807
:1000100000000000000000000000000000000000E0
:10002000000000000000000000000000990100082E
:100030000000000000000000970100089B0100087C
:10004000E3000008E3000008E3000008E300000804
:10005000E3000008E3000008E3000008E3000008F4
:10006000E3000008E3000008E3000008E3000008E4
:10007000E3000008E3000008E3000008E3000008D4
:10008000E3000008E3000008E3000008E3000008C4
:10009000E3000008E3000008E3000008E3000008B4
:1000A000E3000008E3000008E3000008E3000008A4
:1000B000E3000008E3000008E30000080348854669
:1000C00000F02AF8004800477102000808040020E8
:1000D0000448804704480047FEE7FEE7FEE7FEE7E6
:1000E000FEE7FEE741020008BD00000830B50B4600
:1000F000014600202022012409E00D46D5409D4202
:1001000005D31D469540491B254695404019154687
:10011000521E002DF1DC30BD064C0125064E05E0D7
:10012000E36807CC2B430C3C98471034B442F7D318
:10013000FFF7C8FFB4020008D4020008FEE7000081
:1001400008B504494A6B02434A63496B0140009178
:1001500008BD00000010024010B57D21C900FFF766
:10016000C5FF0449401E48610020886105200861E0
:1001700010BD000000E000E0014908607047000089
:100180000000002010B52020FFF7DAFF0120FFF764
:10019000D7FF10BDFEE770477047704710B5234882
:1001A00002210268D208D2000A43026001684907AE
:1001B000490F0229FAD11E48016801221204114395
:1001C000016001688903C90FFBD01A49C2681A4B44
:1001D0001A401143C16001680122120611430160F7
:1001E000C16812011143C16001688901C90FFBD0C8
:1001F00081680F2212029143816082680221D20835
:10020000D2000A4382603822816811401029FBD154
:1002100081680722120391438160084C2046FFF752
:100220009BFF2046FFF7A8FF10BD00000020024002
:1002300000100240030800208C80FF1F0090D003B4
:1002400001200249C00688607047000000ED00E010
:1002500002E008C8121F08C1002AFAD1704770478F
:10026000002001E001C1121F002AFBD170470000ED
:1002700008B50E48012102680A4302600068084080
:1002800000900A4809074038C26B0A43C263C06B3A
:100290000840009006480321026849020A430260B0
:1002A000FFF77CFFFFF76EFFFEE700004010024003
:1002B00000000140D40200080000002004000000FB
:1002C00050020008D80200080400002004040000C6
:0802D000600200080024F400A4
:04000005080000BD32
:00000001FF
