:020000040800F2
:10000000701C0020D1000008DD1300081102000858
:1000100000000000000000000000000000000000E0
:10002000000000000000000000000000E1140008D3
:100030000000000000000000E1130008E3140008C5
:10004000E3000008E3000008E3000008E300000804
:10005000E3000008E3000008E3000008D101000805
:10006000E300000889010008E3000008E30000083D
:10007000E3000008E3000008E3000008E3000008D4
:10008000E3000008E3000008E3000008E3000008C4
:10009000E3000008E3000008E3000008E3000008B4
:1000A000E3000008E3000008E3000008E3000008A4
:1000B000E3000008E3000008E30000080348854669
:1000C00000F050F800480047F51D0008701C0020A3
:1000D0000448804704480047FEE7FEE7FEE7FEE7E6
:1000E000FEE7FEE7ED150008BD00000830B50B4641
:1000F000014600202022012409E00D46D5409D4202
:1001000005D31D469540491B254695404019154687
:10011000521E002DF1DC30BD70B5002425460028AC
:1001200001DA01244042002901DA01254942FFF7A2
:10013000DDFFAC4200D04042002C00D0494270BDEF
:10014000D2B201E00270401C491EFBD2704700226F
:10015000F6E710B513460A4604461946FFF7F0FFC6
:10016000204610BD064C0125064E05E0E36807CC8D
:100170002B430C3C98471034B442F7D3FFF7A2FF4F
:10018000246E0008446E000810B500BF02200D491F
:10019000486000BF00BF0120486000BF00BF0420CE
:1001A000486000BF084600210246074B5B5CD358FD
:1001B0005B085B00044C645C135100BF01200349E1
:1001C000088010BD00000240306D00084000002093
:1001D00010B5FF20013000F00BF9002803D0FF20FC
:1001E000013000F025F80120400200F001F900285C
:1001F00003D00120400200F01BF80120800200F033
:10020000F7F8002803D00120800200F011F810BD9B
:1002100000BFFEE708B50549C96B0143034AD16336
:100220001146C96B0140009100BF08BD001002409B
:1002300001490861704700000018024002494968FE
:100240008143014A51607047801802400249496960
:100250008143014A51617047801802400249096890
:100260008143014A116070478018024002490969C0
:100270008143014A11617047801802400249496870
:100280000143014A516070478018024002494969A0
:100290000143014A51617047801802400249496890
:1002A0000143014A51607047001802400249096841
:1002B0000143014A116070478018024002490969F0
:1002C0000143014A116170478018024002490968E0
:1002D0000143014A116070470018024070B504469E
:1002E0000025207A002873D0206800284BD0607A3F
:1002F000002804D0012809D0022815D10DE020687B
:10030000FFF79CFF2068FFF7D1FF0FE02068FFF7A1
:10031000A5FF2068FFF7B2FF08E02068FFF7C6FFDF
:100320002068FFF7ABFF01E0012500BF00BFA07A06
:10033000002828D0A07A012804D002280DD0032854
:100340001DD115E02068294949688143274A516039
:1003500000BF2068FFF7BAFF14E02068234909684E
:100360008143224A116000BF2068FFF797FF09E030
:100370002068FFF7ABFF2068FFF790FF02E0022044
:10038000054300BF00BF606800282DD0607A0028B8
:1003900004D0012809D0022816D10DE06068FFF7CB
:1003A00055FF6068FFF78AFF11E06068FFF75EFFA6
:1003B0006068FFF76BFF0AE06068FFF77FFF606827
:1003C000FFF764FF03E003E00420054300BF0BE0F8
:1003D0002068FFF743FF2068FFF730FF6068FFF7F2
:1003E00045FF6068FFF732FF284670BD00180240E5
:1003F0000146044800690840884201D10120704745
:100400000020FCE70018024010B5084A8B071B0FBC
:10041000D2580C0C0723A3409A430C0C0346A3406C
:100420001A43024B8C07240F1A5110BD601802406A
:10043000F0B502460B4600266AE00124B440196874
:100440002140002963D05868012802D0586802284A
:1004500015D1986894680D464D436F00ED19AC4373
:100460000D464D4345432C43946000BFD868546803
:100470008C430D4645432C43546000BF00BF1869B0
:10048000D4680D464D436F00ED19AC430D464D4306
:1004900045432C43D46000BF5868022829D1FF2966
:1004A00011D85869146A0D464D434D434D432F01F1
:1004B0007D1BAC430D464D434D434D4345432C43BB
:1004C000146200BF15E05F69080A40430C0A6043EC
:1004D0000C0A60430401241A506AA0430C0A6443C6
:1004E0000D0A6C430D0A6C437C432043506200BFED
:1004F00000BF586814680D464D436F00ED19AC43BA
:100500000D464D4345432C43146000BF00BF761C8D
:100510001868F040002890D1F0BD81627047816278
:1005200070478161704730B503680C464C436500E5
:100530006419A3430C464C4354432343036030BD2A
:1005400030B5C3680C464C4365006419A3430C46A0
:100550004C4354432343C36030BD000008B50549F4
:10056000496B0143034A51631146496B01400091B5
:1005700000BF08BD0010024008B50549496B0143A2
:10058000034A51631146496B0140009100BF08BD09
:100590000010024008B50549496B0143034A516305
:1005A0001146496B0140009100BF08BD0010024098
:1005B00070B504467D25ED0029462046FFF796FDDF
:1005C000401E04494861002088610520086100BF81
:1005D00070BD000000E000E010B5044600F02CFF04
:1005E0002060206800F0FEFE6060606800F010FF90
:1005F000A06010BDF8B504460025032C28D1204684
:1006000000F056F82104401A17D0012804D002281F
:1006100006D0032810D109E000F00EFF054616E0D1
:1006200000F050F8012800D1204D10E000F054F8FF
:10063000012800D1C5030AE000BF00F0FDFE074617
:1006400000F0D0FE064600F0E3FE054600BF2AE0BB
:100650000C2C28D1204600F02BF82104401A17D08A
:10066000042804D0082806D00C2810D109E000F096
:10067000E3FE054616E000F025F8012800D10B4DF9
:1006800010E000F029F8012800D1C5030AE000BFFE
:1006900000F0D2FE074600F0A5FE064600F0B8FEC8
:1006A000054600BF00BF2846F8BD00000024F40046
:1006B00001460348406908400A041043704700009F
:1006C0004010024003480068012189020840800A66
:1006D00070470000001002400248C0690221084033
:1006E00040087047401002400248C068702108402E
:1006F00070470000001002400248C0688007800F69
:1007000070470000001002400348C0687F210902C2
:100710000840000A704700000010024030B5024651
:10072000012300BF1068402420408009002826D102
:100730004C6808682043CC6820430C6920434C690E
:1007400020438C692043CC6920430C6A2043146801
:100750000E4D2C40204310604C69240C88682043C7
:1007600054680B4D2C40204350605C03086AA04243
:1007700004D1486A84B2146100BF00BF0023D0696D
:100780000124E402A043D061184630BD4000FFFFC1
:10079000FBF0FFFF017370470149086070470000DC
:1007A00044000020F0B503461446012901D100257C
:1007B00024E0042901D1012520E0102901D10225DE
:1007C0001CE0402901D1032518E0FF250135A9428D
:1007D00001D1042512E00125AD02A94201D1052570
:1007E0000CE001252D03A94201D1062506E00125D3
:1007F0002D04A94201D1072500E008252846094D0E
:100800002E5C1D46183572191568074E375C032695
:10081000BE40B543260C044F3F5CBE4035431560D7
:10082000F0BD0000D36C0008E56C0008F0B503468D
:100830001446012901D1002524E0042901D1012514
:1008400020E0102901D102251CE0402901D1032517
:1008500018E0FF250135A94201D1042512E0012548
:10086000AD02A94201D105250CE001252D03A942C5
:1008700001D1062506E001252D04A94201D1072555
:1008800000E008252846094D2E5C1D4618357219D2
:100890001568074E375CF026BE40B543260C044F62
:1008A0003F5CBE4035431560F0BD0000D36C0008CE
:1008B000E56C000870B5012901D1002424E0042969
:1008C00001D1012420E0102901D102241CE040299B
:1008D00001D1032418E0FF240134A14201D10424F2
:1008E00012E00124A402A14201D105240CE001245C
:1008F0002403A14201D1062406E001242404A142DC
:1009000001D1072400E008242346046A054DEE5C6B
:100910000A25B540AC43034DEE5C1546B5402C436B
:10092000046270BDEE6C0008F0B503461446012960
:1009300001D1002524E0042901D1012520E010295E
:1009400001D102251CE0402901D1032518E0FF2533
:100950000135A94201D1042512E00125AD02A942C9
:1009600001D105250CE001252D03A94201D1062561
:1009700006E001252D04A94201D1072500E0082544
:100980002846094D2E5C1D46183572191568074E0C
:10099000375C0C26BE40B543260C044F3F5CBE407E
:1009A00035431560F0BD0000D36C0008E56C00080D
:1009B00010B5024613682648824206D001208007FF
:1009C000824202D02348824205D118467024A043B7
:1009D0004C68204303461E48824212D00120800703
:1009E00082420ED01B4882420BD01B48824208D064
:1009F0001A48824205D01A48824202D019488242DF
:100A000006D1184603242402A043CC6820430346A1
:100A100013608868D06200BF0888906200BF0C48ED
:100A2000824208D00D48824205D00D48824202D051
:100A30000C48824203D10869106300BF00BF00BFA9
:100A4000506901242043506100BF002010BD000008
:100A5000002C014000040040002000400040014004
:100A60000044014000480140F0B585B004460D4601
:100A700001270026204600F061F8002851D129699D
:100A8000A868084369690843E96908432168264A58
:100A9000114008432060E868616803221203914313
:100AA0000143616000BFA869A1681211914301432D
:100AB000A16000BF1D48844204D10320FFF79AFDC6
:100AC000064616E01A48844204D10C20FFF792FD36
:100AD00006460EE01748844204D101A8FFF77CFDCA
:100AE000039E06E01448844203D101A8FFF774FD79
:100AF000039E002E0CD06868002809D00027686883
:100B0000009031462046EB692A6800F01FF800BFCC
:100B10002868E16A0909090182B21143E16200BF54
:100B200000BF384605B0F0BDF369FFEF0038014063
:100B30000044004000480040004C00400146086866
:100B4000C007C00F0122504050407047FFB583B02E
:100B5000054614460C9E0B2C2DD80121C90306987E
:100B6000884219D12006800D144A11580498FFF7C5
:100B7000BDFA40007108401831460190FFF7B6FAFF
:100B800087B20F48384002903807400F0299084357
:100B900002900298E8600EE02006800D074A115886
:100BA0000498FFF7A3FA7108401831460190FFF747
:100BB0009DFA80B2E86007B0F0BD0000946D0008B7
:100BC000F0FF000008B501460A4A1269009200BF12
:100BD0000846421C002A00D0401C07E0054A126962
:100BE00001231B041A40002A00D0401E0028F5D122
:100BF00008BD000000E000E008B501200E49896B47
:100C000001430D4A91631146896B0140009100BF79
:100C100000BF0021092001F0A1F80920002809DB0C
:100C200000BF00BFC206D20E01219140034A1160ED
:100C300000BF00BF00BF08BD0010024000E100E09F
:100C4000FCB52B48002102462A4B5B5CD3585B085D
:100C50005B00284C645C135100BF00BF0220244994
:100C6000486000BF00BF2448406802210843224971
:100C7000486000BF1E48002102461E4B5B5CD358F3
:100C8000022423431B4C645C135100BF00BF00BF10
:100C9000184B5B5CD35808242343164C645C1351F7
:100CA00000BF05460020154A134901950B460C3339
:100CB0002946002500910F4E765D00998C59104F02
:100CC0003C4000BF0199102C08D10A4D2D5C6D18D5
:100CD000EA60084D2D5C6D18AB6007E0054D2D5C9A
:100CE0006D18AA60034D2D5C6D18EB6000BFFCBD54
:100CF00000000240046C0008003001407000002039
:100D00001040000000B589B00020069007900890C0
:100D100018216846FFF71BFA0420FFF71FFC20206C
:100D2000FFF71CFC0120FFF719FC0220FFF716FC5F
:100D30000820FFF713FC102105200007FFF7EFFB49
:100D400040215448FFF7EBFB80215248FFF7E7FBB7
:100D500020215148FFF7E3FB102000900120019073
:100D600003200290002003900490694605200007AC
:100D7000FFF75EFB402000900120019003200290CD
:100D800000200390049069464248FFF751FB802001
:100D90000090012001900320029000200390049015
:100DA00069463C48FFF744FB202000900120019059
:100DB0000220029000200390049069463648FFF715
:100DC00037FB36490120FFF71FFB02210120FFF707
:100DD0001BFB33490120FFF717FB0120800206901F
:100DE000012108A80170002141700221817006A82C
:100DF000FFF774FAFF2001300690012108A8017066
:100E0000002141700221817006A8FFF767FA0120D6
:100E100040020690012108A80170002141700221C2
:100E2000817006A8FFF75AFA012291021A48FFF7CB
:100E300087FB012211021848FFF782FB01225102B1
:100E40001548FFF77DFB0022012189021248FFF7B8
:100E50006AFB0022FF2101310F48FFF764FB0022EB
:100E6000012149020C48FFF75EFB0121072000F039
:100E700039FF0720002809DB00BF00BFC206D20EE1
:100E800001219140074A116000BF00BF00BF09B0B7
:100E900000BD0000000800500004005002001000D7
:100EA0000200080000E100E070B592B0282108A817
:100EB000FFF74DF9182102A8FFF749F901200003B7
:100EC0006E49096801436D4A116011460968014085
:100ED000019100BF00BF012068494039496B0143BF
:100EE000664A403A51631146496B0140019100BF87
:100EF00000BF202002900220039000200490059063
:100F00000690079002A905200007FFF791FA4020FC
:100F10000290022003900020049005900690079014
:100F200002A905200007FFF783FA80200290022023
:100F300003900020049005900690079002A90520D8
:100F40000007FFF775FA4E49002011220C464C406D
:100F5000A40AE5002B1B84004A4D64199D006459C6
:100F6000A409A40114438500464EAD199E00AC515E
:100F700000BF0846002110220346434C645C1C5904
:100F8000424D2C401443404D6D5C5C5100BF0A46FD
:100F900000BF3D4C645C1C5903252D03AC43144336
:100FA000394D6D5C5C5100BF00BF00BF364C645CC6
:100FB0001C592025AC431443334D6D5C5C5100BF7C
:100FC00000BF00BF304C645C1C594025AC43144347
:100FD0002D4D6D5C5C5100BF802200BF2A4C645CCB
:100FE0001C598025AC431443274D6D5C5C5100BFF8
:100FF0000A4600BF244C645C1C5903252D02AC43F7
:101000001443214D6D5C5C5100BF00BF00BF1E4CFE
:10101000645C1C590325AD02AC4314431A4D6D5C4E
:101020005C5100BF00200890FF2005300990072088
:1010300000020A9000200B900C90012040020D90BD
:1010400008200E9000200F9010900720119008A902
:101050000F48FFF763FB00200D49496810229143B8
:1010600001430B4A516000BF00BF10464068082191
:1010700008431146486000BF12B070BD40100240E6
:101080000000024000080240686C0008EFBFFFFF4C
:101090000030014000B58DB0142108A8FFF757F8C3
:1010A000182102A8FFF753F801204A49C96B0143F0
:1010B000484AD1631146C96B0140019100BF00BF8E
:1010C000FFF75AFA0220FFF757FA0120C0030290F7
:1010D0000220039000200490059001200690022039
:1010E000079002A905200007FFF7A2F90820029047
:1010F0000220039000200490059001200690022019
:10110000079002A93448FFF793F900206946088444
:10111000099032480A9000200B9008A9012080070E
:10112000FFF746FC00BF012080070068802188434C
:10113000C905086000BF01208968294A11400143A0
:101140008207916000BF020401218007FFF72AFB9C
:101150000122920401218807FFF7E6FB002201210A
:101160008807FFF763FB002201218807FFF7A2FB36
:101170000122120410218806FFF714FB002210211F
:101180008806FFF7D1FB002210218806FFF74EFBEF
:10119000002210218806FFF78DFB0820C106096890
:1011A000082291430143C206116000BF002011468E
:1011B000496870229143014301229207516000BFA8
:1011C00000BF1046806880218843C905886000BF41
:1011D0000DB000BD0010024000040050FFFF0000F1
:1011E000F8FFFEFF00B587B0182101A8FEF7AFFF9A
:1011F00001204006FFF70EF80220FFF7CBF901208F
:10120000FFF7C8F90120C0030190032002900020DD
:10121000059001A90848FFF70BF9FF200130019064
:10122000032002900020059001A905200007FFF788
:10123000FFF807B000BD00000004005000B587B003
:10124000182101A8FEF783FF01208006FEF7E2FFC8
:101250000820FFF79FF90120019003200290002051
:10126000059001A90748FFF7E3F804200190032047
:1012700002900020059001A90248FFF7D9F807B0B5
:1012800000BD0000000C005000B58FB0202107A861
:10129000FEF75DFF182101A8FEF759FF03200004A7
:1012A0004B494969020C914382B21143484A51614A
:1012B00000BF0120800311460968014311601146F7
:1012C00009680140009100BF00BF02204049403939
:1012D000496B01433E4A403A51631146496B014014
:1012E000009100BF00BF402001900220029000202A
:1012F000039004900590069001A93648FFF798F8EE
:10130000802001900220029000200390049005901C
:10131000069001A92F48FFF78BF800200790E120E5
:1013200040020890002009900A900B900C200C902D
:1013300000200D900E9007A92748FFF795FB00208D
:1013400025498968C900C90842071143224A9160AA
:1013500000BF00BF1146896807225206914342062A
:1013600011431D4A916000BF00BF10460068012173
:10137000490788431146086000BF00BF084640681F
:101380000921C902884311464860084680682A211D
:1013900088431146886000BF00BF084600680121ED
:1013A00008431146086000BF00BF00BF0A48C0697B
:1013B000012149050840400D0028F6D000BF06482D
:1013C000C06949000840800D0028EED00FB000BD74
:1013D00040100240000400500038014000BFFEE70A
:1013E00070470000014600BF074880680F221202C4
:1013F00010401040000A8000044A105CC206D20E61
:101400000846D0407047000000100240C46D00083C
:10141000014600BF06488068072212031040000BF7
:101420008000044A105CC206D20E0846D0407047C5
:1014300000100240046E000870B500BF11488068BB
:101440003821084000280BD0082802D0102806D1E7
:1014500001E00D4C12E000F019F804460EE000BF68
:10146000084800680721C9020840C10A01258D40CB
:1014700029460548FEF73AFE044600BF00BF204655
:1014800070BD0000001002400024F400FEB5FFF71C
:1014900033F901900198022802D0032804D101E019
:1014A0000D4C03E00C4C01E00B4C00BF00BF00BF33
:1014B0000A48C068400F451CFFF716F90009471C91
:1014C000FFF722F9604339460090FEF70FFE06460B
:1014D0002946FEF70BFEFEBD0024F400001002407A
:1014E0007047704770B502203C490968C908C900B7
:1014F00001433A4A116000BF00BF00BF374800688F
:101500004007400F0228F8D100BF3548006801218C
:10151000090408433249086000BF00BF00BF3048DB
:101520000068012149040840400C0028F6D003203F
:1015300000210822930604460C4315022C431C4349
:10154000274DED68274E35402C43254DEC6000BFFC
:1015500000BF28460068510508432946086000BFBF
:1015600000BF0846C068090408432946C86000BF98
:1015700000BF00BF1A480068012149060840400E1C
:101580000028F6D00020164989680F2212029143E4
:101590000143134A916000BF022011468968C908BF
:1015A000C9000143916000BF00BF00BF0C488068C4
:1015B000382108401028F8D10020094989680722FD
:1015C000120391430143064A916000BF0648FEF7AB
:1015D000EFFF0548FFF7E0F870BD00000020024073
:1015E000001002408C80FF1F0090D0030120C00635
:1015F000014988607047000000ED00E0FEB5044638
:101600000D4616461F462B48008884420BDA2A48AE
:101610000088854207DA27480088864203DA264890
:101620000088874200DBFEBDB44203DD20B23446B1
:1016300086B200BFBD4203DD28B23D4687B200BF7F
:101640003B4632462946204600F05CF908980112D4
:10165000684601710898C1B26846417180211748F7
:10166000FEF75FFF002000901AE000BF144880687A
:10167000022108400028F9D0684601791048FFF798
:1016800089F800BF0E488068022108400028F9D080
:10169000684641790A48FFF77DF80098401C0090A1
:1016A000301B401C791B491C484300998842DCD8F8
:1016B00000BFB8E7280000202A00002000080050E2
:1016C00000300140FFB587B00F460999079888425E
:1016D00006DD079908B20999079181B2099100BF07
:1016E0000A98874204DD38B20A9F81B20A9100BF8E
:1016F00039460A9B099A079800F004F9802140486E
:10170000FEF70FFF07990998401A401C0A99C91B58
:10171000491C484345003B48854203D801200690B8
:101720002E4619E068080690022603240DE02146A3
:101730002846FEF7DBFC002906D106942146284600
:10174000FEF7D4FC064606E0641C03212846FEF79B
:10175000CDFCA042EBD800BF2B4A0020029210998A
:1017600003912A490A460C32274904920022019229
:101770000091274B019A9A5C00998A58254B1A4090
:1017800005920299059A102A0AD1214B1B5C5B181D
:10179000039ADA601E4B1B5C5B18049A9A6009E09E
:1017A0001B4B1B5C5B18039A9A60194B1B5C5B1804
:1017B000049ADA6000BF1448002105910490144A8D
:1017C0000599515C0498091849680A0C12043243BF
:1017D0000F4B0599595C09184A6000BF0A4800215F
:1017E000059104901A460599515C049842580121CC
:1017F0000A430599595C425000BF0BB0F0BD000090
:1018000000080050FFFF00000000024000300140CF
:10181000842600081040000038B5044606480094AD
:101820000088401E83B205480088401E82B2002115
:101830000846FFF7E3FE38BD2A00002028000020FC
:1018400008201049C880052088800C200E49C880D7
:101850000720888010200D49C8800B208880142024
:101860000B49C8800E20888018200A49C8801120A2
:1018700088800020084948803F20400108800348B4
:101880004860704720000020180000201000002051
:1018900008000020000000202C00002010B52021AE
:1018A0000148FEF73EFE10BD0004005010B504468E
:1018B00080210748FEF731FE21460648FEF76AFF01
:1018C00000BF04488068802108400028F9D110BD7D
:1018D000000800500030014010B504468021074840
:1018E000FEF71FFE21460648FEF754FF00BF0448DE
:1018F0008068802108400028F9D110BD0008005000
:1019000000300140F8B504460D4616461F462A2011
:10191000FFF7CCFF2004010E6846017044703004CC
:10192000010E68468170C670042100F05BF82B2020
:10193000FFF7BCFF2804010E6846017045703804AB
:10194000010E68468170C770042100F04BF82C200E
:10195000FFF7ACFFF8BD0000014948607047000088
:101960002C00002010B504463620FFF79FFF002C06
:1019700006D0012C0FD0022C18D0032C2CD120E043
:101980004820FFF7A9FFF02014490880FF204130CC
:101990001349088020E02820FFF79EFFFF204130F8
:1019A0000E490880F0200E49088015E08820FFF7D6
:1019B00093FFF02009490880FF2041300849088042
:1019C0000AE0E820FFF788FFFF2041300349088044
:1019D000F0200349088000BF00BF10BD2800002090
:1019E0002A000020F8B505460C4680211048FEF775
:1019F00098FD1AE00120C003844200D900E020468F
:101A000086B200270CE0E95D0A48FEF7C3FE00BF7E
:101A100008488068802108400028F9D1781C07B266
:101A2000A742F0D3AD19A41B00BF002CE2D1F8BD32
:101A300000080050003001407FB504460D461021DB
:101A400005200007FEF769FD00F02EF90120FFF7E1
:101A50002DFF7D20C000FFF7B5F8392168460170E1
:101A60002C214170002181703421C170022101714B
:101A7000CB20FFF71BFF05216846FFF7B3FF0021CE
:101A800068460170C121417030218170CF20FFF77D
:101A90000DFF03216846FFF7A5FF85216846017009
:101AA0000021417078218170E820FFF7FFFE0321BB
:101AB0006846FFF797FF0021684601704170EA20F1
:101AC000FFF7F4FE02216846FFF78CFF64216846A9
:101AD000017003214170122181708121C170ED20BC
:101AE000FFF7E4FE04216846FFF77CFF20216846EB
:101AF0000170F720FFF7DAFE01216846FFF772FF59
:101B0000102168460170C020FFF7D0FE0121684611
:101B1000FFF768FF102168460170C120FFF7C6FE7D
:101B200001216846FFF75EFF3E21684601702821CB
:101B30004170C520FFF7BAFE02216846FFF752FF49
:101B4000862168460170C720FFF7B0FE0121684674
:101B5000FFF748FF4821684601703620FFF7A6FED0
:101B600001216846FFF73EFF5521684601703A2083
:101B7000FFF79CFE01216846FFF734FF002168460D
:101B8000017018214170B120FFF790FE02216846D4
:101B9000FFF728FF08216846017082214170272144
:101BA0008170B620FFF782FE03216846FFF71AFF17
:101BB000002168460170F220FFF778FE0121684697
:101BC000FFF710FF0121684601702620FFF76EFE27
:101BD00001216846FFF706FF0F2168460170312199
:101BE00041702B2181700C21C1700E2101710821DF
:101BF00041714E218171F121C1713721017207219B
:101C00004172102181720321C1720E2101730921D9
:101C1000417300218173E020FFF748FE0F216846E1
:101C2000FFF7E0FE0021684601700E21417014218B
:101C300081700321C170112101710721417131218E
:101C40008171C121C17148210172082141720F21A6
:101C500081720C21C17231210173362141730F2130
:101C60008173E120FFF722FE0F216846FFF7BAFEDD
:101C70001120FFF71BFE9620FEF7A4FF48216846BF
:101C800001702920FFF712FE01216846FFF7AAFE26
:101C90000348048003480580FFF7D2FD7FBD0000A4
:101CA000280000202A00002010B540210548FEF73A
:101CB00034FC0520FEF786FF40210248FEF731FC88
:101CC00010BD00000008005030B47446641E257832
:101CD000641CAB4204D3635D5B00E31830BC18475F
:101CE0001D46F8E710B5002819DB1A4A03231B022A
:101CF000D21883089B00D2588307DC0EFF23A34031
:101D00009A438B071B0E8407E40EA3401A43114B22
:101D1000032424021B198408A4001A5118E00E4A57
:101D200003071B0F083B9B089B00D2588307DC0E60
:101D3000FF23A3409A438B071B0E8407E40EA340A6
:101D40001A43054B0407240F083CA408A4001A51A9
:101D500010BD000000E100E01CED00E010B500281F
:101D600019DB1A4A03231B02D21883089B00D2589E
:101D70008307DC0EFF23A3409A438B071B0E8407C7
:101D8000E40EA3401A43114B032424021B198408B8
:101D9000A4001A5118E00E4A03071B0F083B9B08CA
:101DA0009B00D2588307DC0EFF23A3409A438B0786
:101DB0001B0E8407E40EA3401A43054B0407240FAF
:101DC000083CA408A4001A5110BD000000E100E086
:101DD0001CED00E002E008C8121F08C1002AFAD179
:101DE00070477047002001E001C1121F002AFBD19B
:101DF0007047000090B000200E900F900C900D9056
:101E00000A900B90089009900A216846017402A874
:101E100041728172C1726846017502A84173817373
:101E2000C1736846017602A841748174C174684622
:101E3000017702A841758175C1750120FE490968C5
:101E40000143FD4A1160114609680140019100BF3C
:101E500000BF0007F8494039C96B0143F64A403AD0
:101E6000D1631146C96B0140019100BF00BF8014CE
:101E7000F24909680143F14A116000BFFFF732FBE4
:101E80000020EF490860FEF73DFFFEF7B5FEFFF7C3
:101E90000BF8FFF7A7F9FFF7D1F9FFF7F5F9FFF70F
:101EA000F9F800BF01208007006801210843890775
:101EB000086000BF00BFE348006840210843E149D3
:101EC000086000BFFFF7EAFCFFF7EEFEFF2141319B
:101ED000F020FFF7B1FD0020FFF79EFC0120FFF787
:101EE00041FDD948FFF738FDFEF7AAFE7B20D74910
:101EF000488088803F20400146235F224121009096
:101F00005A20FFF77BFB3F2040014623EF2241216F
:101F10000090EA20FFF772FB3F20400173235F220D
:101F20006E2100905A20FFF769FB3F204001732388
:101F3000EF226E210090EA20FFF760FB22E2C34807
:101F40004088401CC1494880084640887D2149019D
:101F5000884202D10020BD494880BC488088401C8E
:101F6000BA498880084680887D214901884202D18B
:101F70000020B6498880B5488088401CB3498880D5
:101F80000846C0887D214901884202D10020AF491E
:101F9000C880AE48C088401CAC49C880084600894B
:101FA0007D214901884202D10020A8490881A74823
:101FB0000089401CA54908816846008949888842F3
:101FC0006FD00025A14844880A212046FEF7A4F8D6
:101FD000684601870A212046FEF79EF884B20A214E
:101FE0002046FEF799F8684641870A212046FEF709
:101FF00093F884B20A212046FEF78EF8684681875E
:102000000A212046FEF788F884B26846C487C18F4B
:1020100002A8C07A814206D06846C08FC2B214219D
:10202000192000F0B3F96846818F02A8807A8142B6
:1020300006D06846808FC2B21421392000F0A6F97C
:102040006846418F02A8407A814206D06846408F98
:10205000C2B21421642000F099F96846018F007C17
:10206000814206D06846008FC2B21421842000F05D
:102070008DF96846008FC1B268460174408FC1B2C5
:1020800002A841726846808FC1B202A88172684678
:10209000C08FC1B202A8C1726C48418868464181B4
:1020A00000BF6846408969498988884270D0002508
:1020B000664884880A212046FEF72EF86846018685
:1020C0000A212046FEF728F884B20A212046FEF7AE
:1020D00023F8684641860A212046FEF71DF884B29F
:1020E0000A212046FEF718F8684681860A21204614
:1020F000FEF712F884B26846C486C18E02A8C07B7F
:10210000814206D06846C08EC2B21421AA2000F0D7
:102110003DF96846818E02A8807B814206D06846E0
:10212000808EC2B21421CA2000F030F96846418E78
:1021300002A8407B814206D06846408EC2B214217C
:10214000F02000F023F96846018E007D814207D01F
:102150006846008EC2B21421FF20113000F016F93B
:102160006846008EC1B268460175408EC1B202A8B1
:1021700041736846808EC1B202A881736846C08EE2
:10218000C1B202A8C173314881886846418100BF4D
:10219000684680892D49C98888427CD000252B4813
:1021A000C4880A212046FDF7B7FF684601850A2149
:1021B0002046FDF7B1FF84B20A212046FDF7ACFFAF
:1021C000684641850A212046FDF7A6FF84B20A2110
:1021D0002046FDF7A1FF684681850A212046FDF7CC
:1021E0009BFF84B26846C485C18D02A8C07C814231
:1021F00006D06846C08DC2B24621192000F0C6F84C
:102200006846818D02A8807C814206D06846808D18
:10221000C2B24621392000F0B9F86846418D02A8C3
:10222000407C814206D06846408DC2B2462164207F
:1022300000F0ACF868460BE040100240000001409E
:1022400080E200E00030014038000020480000201B
:10225000018D007E814206D06846008DC2B24621C3
:10226000842000F093F86846008DC1B2684601767C
:10227000408DC1B202A841746846808DC1B202A8E7
:1022800081746846C08DC1B202A8C1743E48C1883D
:102290006846818100BF6846C0893B4909898842F8
:1022A00070D00025384804890A212046FDF734FF04
:1022B000684601850A212046FDF72EFF84B20A21D7
:1022C0002046FDF729FF684641850A212046FDF793
:1022D00023FF84B20A212046FDF71EFF6846818451
:1022E0000A212046FDF718FF84B26846C484C18DD8
:1022F00002A8C07D814206D06846C08DC2B2462188
:10230000AA2000F043F86846818D02A8807D8142B2
:1023100006D06846808DC2B24621CA2000F036F849
:102320006846418D02A8407D814206D06846408DB6
:10233000C2B24621F02000F029F86846018D007FE6
:10234000814207D06846008DC2B24621FF2011307D
:1023500000F01CF86846008CC1B268460177408CDA
:10236000C1B202A841756846808CC1B202A88175CD
:102370006846C08CC1B202A8C1750348018968468D
:10238000818100BFDBE5000048000020F7B584B084
:10239000074600240020029000BFB54800880128AD
:1023A000FBD10020B249088006980300FFF78CFC9F
:1023B0000A06080B0E1114171A1D2023C0261AE056
:1023C000FF26813617E00926B60114E003263602FF
:1023D00011E00F26B6010EE00926F6010BE01526E6
:1023E000B60108E00326760205E01B26B60102E0EE
:1023F0000F26F60100BF00BF0398B42802D11F20AA
:10240000029007E00398872802D11720029001E08C
:102410000F20029097480088002879D10120954923
:10242000088000207FE09449096832188D5C802183
:102430002940002904D01F216200904B995203E0EB
:10244000002162008D4B995240212940002905D07E
:102450001F22611C4900894B5A5204E00022611C72
:102460004900864B5A5220212940002905D01F22BD
:10247000A11C4900814B5A5204E00022A11C4900D2
:102480007E4B5A5210212940002905D01F22E11C01
:1024900049007A4B5A5204E00022E11C4900774B74
:1024A0005A5208212940002905D01F22211D490028
:1024B000724B5A5204E00022211D49006F4B5A52C0
:1024C00004212940002905D01F22611D49006B4BC2
:1024D0005A5204E00022611D4900684B5A52022101
:1024E0002940002905D01F22A11D4900634B5A52E3
:1024F00004E00022A11D4900604B5A52E907C90FB0
:10250000002906D01F22E11D49005C4B5A5205E00C
:1025100019E00022E11D4900584B5A52214608316A
:102520008CB2411C88B2C02800DA7CE75348009086
:1025300005982F3083B238461F3082B2384605994D
:10254000FFF7C0F892E000207EE04B49096832189E
:102550008D5C80212940002904D01F216200484B56
:10256000995203E000216200454B995240212940D5
:10257000002905D01F22611C4900414B5A5204E03A
:102580000022611C49003E4B5A522021294000295B
:1025900005D01F22A11C4900394B5A5204E00022E9
:1025A000A11C4900364B5A5210212940002905D060
:1025B0001F22E11C4900324B5A5204E00022E11C68
:1025C00049002F4B5A5208212940002905D01F22CB
:1025D000211D49002A4B5A5204E00022211D4900C6
:1025E000274B5A5204212940002905D01F22611D82
:1025F0004900234B5A5204E00022611D4900204B40
:102600005A5202212940002905D01F22A11D49004C
:102610001B4B5A5204E00022A11D4900184B5A528C
:10262000E907C90F002905D01F22E11D4900144BFD
:102630005A5204E00022E11D4900114B5A52214632
:1026400008318CB2411C88B2C02800DA7DE70C4802
:10265000009005982F3083B238461F3082B238463A
:102660000599FFF72FF800200249088007B0F0BD58
:1026700040000020340000203800002070000020BE
:10268000700C0020081C3044586C800000000004CE
:1026900004043C3C0000080000000800080000089A
:1026A00000000008000000020406080A0C101400D4
:1026B000010203040506080A0100000002000000F0
:1026C0000400000006000000080000000A000000EE
:1026D0000C0000001000000020000000400000007E
:1026E0008000000000010000000000000000000069
:1026F00000000000000000000000000000000000DA
:1027000000000000000000000000000000000000C9
:1027100000000000000000000000000000000000B9
:1027200000000000000000000000000000000000A9
:10273000000000000000038000038000038000030D
:10274000800003800003800003800003800003807A
:1027500000010000010000000000000000038000F4
:1027600003800000000000000000000000000000E6
:102770000000000000000000000000000000000059
:10278000000E70000E70000E700004200004200087
:1027900004200004200000000000000000000000F1
:1027A0000000000000000000000000000000000029
:1027B0000000000000000000000000000000000019
:1027C00000000000000006600006600006600006D1
:1027D00060000660003FF8003FF8000660000CC093
:1027E000003FF8003FF8000CC0000CC0000CC00017
:1027F0000CC0000CC0000000000000000000000041
:1028000000000000000000000000000180000180C6
:102810000007B0000FF0001870001870001C0000D6
:102820000F800007E00000F0001830001C30001C92
:1028300070001FE0001BC0000180000180000180CB
:102840000001800000000000000000000000000007
:102850000000000000000780000FC0001CE000180E
:1028600060001860001CE0000FF80007E0001FF097
:102870000007380006180006180007380003F000AB
:1028800001E0000000000000000000000000000067
:102890000000000000000000000000000000000038
:1028A0000000000003F00007F0000C60000C0000C6
:1028B0000C00000600000700000F9C001DFC001823
:1028C000F0001870000FFC0007DC000000000000A2
:1028D00000000000000000000000000000000000F8
:1028E00000000000000000000003800003800003DF
:1028F0008000010000010000010000010000000054
:1029000000000000000000000000000000000000C7
:1029100000000000000000000000000000000000B7
:10292000000000000000000000000000000000188F
:102930000000380000700000F00000E00000E0003F
:1029400001C00001C00001C00001C00001C00001C1
:10295000C00000E00000E0000070000070000038DF
:10296000000018000000000000000000000000004F
:102970000000000000001800001C00000E00000E07
:1029800000000700000700000380000380000380B0
:1029900000038000038000038000070000070000A0
:1029A0000F00000E00001C000018000000000000D6
:1029B0000000000000000000000000000000018096
:1029C000000180000180001DB8001FF80007E00032
:1029D00003C00003C00006600006600000000000A5
:1029E00000000000000000000000000000000000E7
:1029F00000000000000000000000000000000000D7
:102A00000000000000000000000000000180000144
:102A100080000180000180000180003FFC003FFC3D
:102A20000001800001800001800001800001800021
:102A30000000000000000000000000000000000096
:102A40000000000000000000000000000000000086
:102A50000000000000000000000000000000000076
:102A60000000000000000000000000000000000066
:102A7000000000E00000C00001C0000180000180F3
:102A80000003000003000000000000000000000040
:102A90000000000000000000000000000000000036
:102AA00000000000000000000000001FF8001FF8F8
:102AB0000000000000000000000000000000000016
:102AC0000000000000000000000000000000000006
:102AD00000000000000000000000000000000000F6
:102AE00000000000000000000000000000000000E6
:102AF00000000000000000000000000000000000D6
:102B0000000003C00003C00003C00000000000007C
:102B100000000000000000000000000000000000B5
:102B2000001800001800003800003000007000009D
:102B3000600000600000C00000C000018000018053
:102B4000000300000300000600000600000E000065
:102B50000C00001C0000180000180000000000001D
:102B6000000000000000000000000000000003C0A2
:102B70000007E0000C30000C300018180018180096
:102B80001818001818001818001818001818000C49
:102B900030000C300007E00003C00000000000001F
:102BA0000000000000000000000000000000000025
:102BB0000000000000000080000780001F80001D52
:102BC0008000018000018000018000018000018000
:102BD000000180000180000180000180001FF800DA
:102BE0001FF80000000000000000000000000000CE
:102BF000000000000000000000000000000007C00E
:102C0000001FF000383000301800301800001800A5
:102C100000300000600001C0000380000600000CCE
:102C200000001800003FF8003FF80000000000001E
:102C30000000000000000000000000000000000094
:102C400000000000000003C0000FE0000C70000056
:102C5000300000300000600003C00003E00000709E
:102C6000000018000018000018001838001FF000BD
:102C70000FC0000000000000000000000000000085
:102C8000000000000000000000000000000000E064
:102C90000001E00001E00003600006600006600043
:102CA0000C60000C60001860003060003FF8003FCE
:102CB000F80000600003F80003F8000000000000C6
:102CC0000000000000000000000000000000000004
:102CD0000000000000001FF0001FF00018000018A6
:102CE00000001800001BC0001FF0001C300000187E
:102CF000000018000018000018003030003FF000FD
:102D00000FC00000000000000000000000000000F4
:102D1000000000000000000000000000000000F8BB
:102D20000003F8000700000E00000C00001800006F
:102D30001BC0001FF0001C300018180018180018E5
:102D400018000C38000FF00003E000000000000045
:102D50000000000000000000000000000000000073
:102D60000000000000001FF8001FF80018180018ED
:102D7000380000300000300000700000600000608B
:102D80000000E00000C00000C00001C000018000A1
:102D900001800000000000000000000000000000B2
:102DA000000000000000000000000000000007E03C
:102DB000000FF0001C38001818001818000C300024
:102DC00007E00007E0000C30001818001818001881
:102DD00018001C38000FF00007E0000000000000A1
:102DE00000000000000000000000000000000000E3
:102DF00000000000000007C0000FF0001C300018A9
:102E000018001818001818000C38000FF80003D824
:102E10000000180000300000700000E0001FC0003B
:102E20001F00000000000000000000000000000083
:102E30000000000000000000000000000000000092
:102E40000000000000000000000003C00003C000FC
:102E500003C00000000000000000000000000000AF
:102E6000000003C00003C00003C000000000000019
:102E70000000000000000000000000000000000052
:102E80000000000000000000000000000000000042
:102E9000000000F00000F00000F000000000000062
:102EA0000000000000000000E00001C00001800000
:102EB000018000030000020000000000000000008C
:102EC0000000000000000000000000000000000002
:102ED00000000000001C00003C0000F00003C000E7
:102EE0000F00003C0000F000003C00000F00000359
:102EF000C00000F000003C00001C000000000000CA
:102F000000000000000000000000000000000000C1
:102F100000000000000000000000000000000000B1
:102F200000000000007FFC007FFC000000000000AB
:102F3000007FFC007FFC000000000000000000009B
:102F40000000000000000000000000000000000081
:102F50000000000000000000000000000000000071
:102F6000000000007000007800001E0000078000D4
:102F700001E000007800001E0000780001E000077A
:102F800080001E00007800007000000000000000BB
:102F90000000000000000000000000000000000031
:102FA00000000000000000000007C0000FE0001853
:102FB000700018300018300000700000E00003C0FE
:102FC0000003800003000000000000000007000074
:102FD00007000000000000000000000000000000EA
:102FE000000000000000000000000000000003E0FE
:102FF0000007F0000E38000C180018780018F800D0
:1030000019D80019980019980019980018F8001894
:1030100078001800000C00000E180007F80003E00C
:1030200000000000000000000000000000000000A0
:103030000000000000000000001F80001FC0000111
:10304000C0000360000360000630000630000C3052
:10305000000FF8001FF800180C00300C00FC7F0077
:10306000FC7F0000000000000000000000000000E5
:103070000000000000000000000000000000000050
:10308000007FE0007FF000183800181800181800C2
:103090001838001FF0001FF800181C00180C00184A
:1030A0000C00180C007FF8007FF00000000000000A
:1030B0000000000000000000000000000000000010
:1030C00000000000000000000003EC000FFC001CEA
:1030D0001C00180C00300C003000003000003000E4
:1030E00000300000300000180C001C1C000FF8001D
:1030F00003F00000000000000000000000000000DD
:1031000000000000000000000000000000000000BF
:10311000007FC0007FF000183800181800180C005D
:10312000180C00180C00180C00180C00180C0018D3
:1031300018001838007FF0007FE000000000000059
:10314000000000000000000000000000000000007F
:103150000000000000000000007FF8007FF8001869
:1031600018001818001998001980001F80001F808F
:10317000001980001998001818001818007FF8002E
:103180007FF80000000000000000000000000000C8
:10319000000000000000000000000000000000002F
:1031A000003FFC003FFC000C0C000C0C000CCC00A1
:1031B0000CC0000FC0000FC0000CC0000CC0000C01
:1031C00000000C00003FC0003FC0000000000000F5
:1031D00000000000000000000000000000000000EF
:1031E00000000000000000000003EC000FFC001CC9
:1031F0001C00180C00300C0030000030000030FEC5
:103200000030FE00300C00380C001C1C000FFC00CD
:1032100003F00000000000000000000000000000BB
:10322000000000000000000000000000000000009E
:10323000007E7E007E7E0018180018180018180006
:103240001818001FF8001FF80018180018180018A8
:1032500018001818007E7E007E7E0000000000002E
:10326000000000000000000000000000000000005E
:103270000000000000000000001FF8001FF800011F
:103280008000018000018000018000018000018039
:10329000000180000180000180000180001FF80013
:1032A0001FF8000000000000000000000000000007
:1032B000000000000000000000000000000000000E
:1032C0000007FE0007FE0000300000300000300064
:1032D000003000003000303000303000303000303E
:1032E00030003060003FE0000F8000000000000070
:1032F00000000000000000000000000000000000CE
:103300000000000000000000007F3E007F3E00182B
:10331000300018600018C0001980001B80001FC01A
:10332000001CE0001870001830001838007F1F00E3
:103330007F1F0000000000000000000000000000EF
:10334000000000000000000000000000000000007D
:10335000007F80007F80000C00000C00000C00004B
:103360000C00000C00000C00000C0C000C0C000CFD
:103370000C000C0C007FFC007FFC00000000000033
:10338000000000000000000000000000000000003D
:10339000000000000000000000F00F00F81F0038DF
:1033A0001C003C3C003C3C00366C00366C0033CCCE
:1033B0000033CC00318C00300C00300C00FE7F005C
:1033C000FE7F000000000000000000000000000080
:1033D00000000000000000000000000000000000ED
:1033E0000078FE0078FE001C18001E18001F180050
:1033F0001B18001B980019D80018D80018F80018DE
:1034000078001838007F18007F18000000000000C6
:1034100000000000000000000000000000000000AC
:1034200000000000000000000003C0000FF0001CBE
:103430003800181800381C00300C00300C00300C1C
:1034400000300C00381C001818001C38000FF00069
:1034500003C00000000000000000000000000000A9
:10346000000000000000000000000000000000005C
:10347000003FF0003FF8000C1C000C0C000C0C008E
:103480000C0C000C18000FF8000FE0000C00000CF2
:1034900000000C00003FC0003FC000000000000022
:1034A000000000000000000000000000000000001C
:1034B00000000000000000000003C0000FF0001C2E
:1034C0003800181800381C00300C00300C00300C8C
:1034D00000300C00381C001818001C38000FF000D9
:1034E00007C00007CC000FFC000C380000000000F3
:1034F00000000000000000000000000000000000CC
:10350000007FE0007FF0001838001818001818003D
:103510001838001FF0001FC00018E00018700018D5
:1035200030001838007F1E007F0E000000000000F1
:10353000000000000000000000000000000000008B
:1035400000000000000000000007D8000FF8001C79
:1035500038001818001818001E00000FC00003F0F3
:10356000000078001818001818001C38001FF00020
:103570001BE0000000000000000000000000000050
:10358000000000000000000000000000000000003B
:10359000003FFC003FFC00318C00318C00318C007E
:1035A000318C000180000180000180000180000159
:1035B00080000180000FF0000FF00000000000000C
:1035C00000000000000000000000000000000000FB
:1035D0000000000000000000007E7E007E7E0018DB
:1035E00018001818001818001818001818001818D3
:1035F000001818001818001818000C30000FF00000
:1036000003C00000000000000000000000000000F7
:1036100000000000000000000000000000000000AA
:10362000007F7F007F7F00180C000C18000C180032
:103630000C18000630000630000360000360000331
:10364000600001C00001C000008000000000000018
:10365000000000000000000000000000000000006A
:10366000000000000000000000FE3F80FE3F8030B0
:10367000060030060030860019CC0019CC001B6C07
:10368000001B6C001E7C000E38000E38000C180069
:103690000C18000000000000000000000000000006
:1036A000000000000000000000000000000000001A
:1036B000007E7E007E7E001818000C300006600040
:1036C00003C00001800001800003C0000660000C00
:1036D00030001818007E7E007E7E00000000000092
:1036E00000000000000000000000000000000000DA
:1036F0000000000000000000007C7E007C7E0018BE
:1037000018000C300006600006600003C000018055
:10371000000180000180000180000180000FF000A6
:103720000FF000000000000000000000000000009A
:103730000000000000000000000000000000000089
:10374000001FF8001FF8001818001830001860005B
:1037500018C0000180000300000618000C180018B3
:1037600018003018003FF8003FF80000000000008B
:103770000000000000000000000000000000000049
:1037800000000000000001F00001F00001800001D5
:103790008000018000018000018000018000018024
:1037A0000001800001800001800001800001800094
:1037B00001800001800001F00001F0000000000025
:1037C00000000000000000001800001800001C00AD
:1037D000000C00000E0000060000060000030000C0
:1037E00003000001800001800000C00000C0000054
:1037F0006000006000007000003000003800001819
:1038000000001800000000000000000000000000A0
:103810000000000000000F80000F80000180000108
:103820008000018000018000018000018000018093
:103830000001800001800001800001800001800003
:103840000180000180000F80000F80000000000058
:10385000000000000000000000000000800001C027
:103860000003E0000770000630000C1800180C0080
:103870001004000000000000000000000000000034
:103880000000000000000000000000000000000038
:103890000000000000000000000000000000000028
:1038A0000000000000000000000000000000000018
:1038B0000000000000000000000000000000000008
:1038C00000000000000000000000000000000000F8
:1038D00000000000000000000000000000000000E8
:1038E0000000FFFF00FFFF00000000030000038056
:1038F0000000E00000600000000000000000000088
:1039000000000000000000000000000000000000B7
:1039100000000000000000000000000000000000A7
:103920000000000000000000000000000000000097
:103930000000000000000000000000000000000087
:1039400000000FC0001FE00000300000300007F052
:10395000001FF0003830003030003070001FFC00D5
:103960000FBC00000000000000000000000000008C
:1039700000000000000000000000000000007800CF
:10398000007800001800001800001BE0001FF8007D
:103990001C1800180C00180C00180C00180C00184B
:1039A0000C001C18007FF8007BE000000000000005
:1039B0000000000000000000000000000000000007
:1039C00000000000000000000000000000000000F7
:1039D000000003EC000FFC001C1C00380C00300C35
:1039E00000300000300000380C001C1C000FF800F4
:1039F00003F00000000000000000000000000000D4
:103A0000000000000000000000000000000000783E
:103A10000000780000180000180007D8001FF80008
:103A200018380030180030180030180030180030F6
:103A300018001838001FFE0007DE0000000000001C
:103A40000000000000000000000000000000000076
:103A50000000000000000000000000000000000066
:103A6000000007E0001FF800181800300C003FFCB1
:103A7000003FFC00300000300000180C001FFC006C
:103A800007F000000000000000000000000000003F
:103A9000000000000000000000000000000001FC29
:103AA0000003FC000600000600003FF8003FF8009D
:103AB00006000006000006000006000006000006E2
:103AC00000000600003FF0003FF000000000000092
:103AD00000000000000000000000000000000000E6
:103AE00000000000000000000000000000000000D6
:103AF000000007DE001FFE001838003018003018E4
:103B0000003018003018003018001838001FF80076
:103B100007D8000018000018000038000FF0000F50
:103B2000C00000000000000000000000000078005D
:103B3000007800001800001800001BE0001FF000D3
:103B40001C38001818001818001818001818001849
:103B500018001818007E7E007E7E00000000000025
:103B60000000000000000000000000000000000055
:103B70000000000000000180000180000000000043
:103B800000001F80001F8000018000018000018074
:103B9000000180000180000180000180003FFC00E6
:103BA0003FFC0000000000000000000000000000DA
:103BB000000000000000000000000000000000C045
:103BC0000000C0000000000000001FF0001FF00017
:103BD00000300000300000300000300000300000F5
:103BE00030000030000030000030000030000030B5
:103BF000000070001FE0001F8000000000000000B7
:103C00000000000000003C00003C00000C00000C24
:103C100000000CF8000CF8000CC0000D80000F80B4
:103C2000000F00000F80000DC0000CE0003C7C0085
:103C30003C7C0000000000000000000000000000CC
:103C400000000000000000000000000000001F80D5
:103C5000001F8000018000018000018000018000C1
:103C600001800001800001800001800001800001CE
:103C700080000180003FFC003FFC000000000000CD
:103C80000000000000000000000000000000000034
:103C90000000000000000000000000000000000024
:103CA0000000F77800FFFC0039CC00318C00318C2B
:103CB00000318C00318C00318C00318C00FDEF0024
:103CC000FDEF000000000000000000000000000008
:103CD00000000000000000000000000000000000E4
:103CE000000000000000000000007BE0007FF0000A
:103CF0001C38001818001818001818001818001898
:103D000018001818007E7E007E7E00000000000073
:103D100000000000000000000000000000000000A3
:103D20000000000000000000000000000000000093
:103D3000000003C0000FF0001C3800381C00300CDD
:103D400000300C00300C00381C001C38000FF00054
:103D500003C00000000000000000000000000000A0
:103D60000000000000000000000000000000000053
:103D7000000000000000000000007BE0007FF80071
:103D80001C1800180C00180C00180C00180C001857
:103D90000C001C18001FF8001BE0001800001800A1
:103DA000001800007F00007F0000000000000000FD
:103DB0000000000000000000000000000000000003
:103DC000000007DE001FFE00183800301800301811
:103DD000003018003018003018001838001FF800A4
:103DE00007D80000180000180000180000FE0000AE
:103DF000FE000000000000000000000000000000C5
:103E0000000000000000000000003E78003EFC00C2
:103E100007CC0007000006000006000006000006B0
:103E200000000600003FF0003FF00000000000002E
:103E30000000000000000000000000000000000082
:103E40000000000000000000000000000000000072
:103E5000000007F8000FF8001818001818001F805D
:103E6000000FF00000F8001818001838001FF000CC
:103E70001FE0000000000000000000000000000043
:103E800000000000000000000000000000000C0026
:103E9000000C00000C00000C00003FF0003FF000A0
:103EA0000C00000C00000C00000C00000C00000CCA
:103EB00000000C1C0007FC0003F0000000000000E4
:103EC00000000000000000000000000000000000F2
:103ED00000000000000000000000000000000000E2
:103EE0000000787800787800181800181800181862
:103EF000001818001818001818001838000FFE00D5
:103F000007DE0000000000000000000000000000CC
:103F100000000000000000000000000000000000A1
:103F2000000000000000000000007C3E007C3E001D
:103F30001818001818000C30000C3000066000063D
:103F4000600007E00003C00003C0000000000000A4
:103F50000000000000000000000000000000000061
:103F60000000000000000000000000000000000051
:103F70000000783C00783C003118003398003398FA
:103F8000001AB0001EF0001EF0001C60000C600063
:103F90000C600000000000000000000000000000B5
:103FA0000000000000000000000000000000000011
:103FB000000000000000000000003E7C003E7C008D
:103FC0000C300006600003C00001800003C0000642
:103FD00060000C30003E7C003E7C000000000000D1
:103FE00000000000000000000000000000000000D1
:103FF00000000000000000000000000000000000C1
:1040000000007E1F007E1F00180C000C18000C180A
:104010000006300006300003600003E00001C0002D
:1040200000C0000180000180000300003FC0003F8D
:10403000C0000000000000000000000000000000C0
:10404000000000000000000000001FF8001FF80042
:1040500018300018600000C0000180000300000656
:1040600018000C18001FF8001FF8000000000000E6
:104070000000000000000000000000000000000040
:1040800000000000000000E00001E00001800001ED
:104090008000018000018000018000018000038019
:1040A0000007000003800001800001800001800003
:1040B00001800001800001E00000E000000000003D
:1040C000000000000000000000000000000001806F
:1040D000000180000180000180000180000180005B
:1040E000018000018000018000018000018000014A
:1040F00080000180000180000180000180000180BB
:10410000000180000000000000000000000000002E
:10411000000000000000070000078000018000018F
:10412000800001800001800001800001800001C04A
:104130000000E00001C0000180000180000180005B
:1041400001800001800007800007000000000000DF
:10415000000000000000000000000000000000005F
:10416000000000000000000000000000000000004F
:104170000E00001F18003BB80031F00000E0000006
:10418000000000000000000000000000000000002F
:10419000000000000000000000000000000000001F
:1041A000000000000000000000000000000000000F
:1041B00000000000000000000000000000000000FF
:1041C00000000000000000000000070007000700DA
:1041D00007000700070007000200020000000000BF
:1041E00007000700000000000000000000000000C1
:1041F000000000001CE01CE01CE0084008400840F3
:1042000000000000000000000000000000000000AE
:1042100000000000000000000CC00CC00CC00CC06E
:104220000CC03FF03FF00CC00CC03FF03FF00CC0A2
:104230000CC00CC00CC00CC000000000000000004E
:104240000300030007E00FE0186018001F000FC014
:1042500000E0186018601FC01F8003000300030007
:10426000000000000000000000001C0022002200EE
:1042700022001C6001E00F803C0031C002200220BF
:10428000022001C00000000000000000000000004B
:1042900000000000000003E00FE00C000C0006002E
:1042A0000F301FF019E018C01FF007B00000000029
:1042B00000000000000000000000000003800380F8
:1042C0000380010001000100000000000000000068
:1042D00000000000000000000000000000000000DE
:1042E000000000C000C001800180018003000300C5
:1042F000030003000300030001800180018000C06F
:1043000000C000000000000000000C000C000600CF
:10431000060006000300030003000300030003007F
:104320000600060006000C000C0000000000000063
:1043300000000300030003001B601FE007800780EC
:104340000FC00CC0000000000000000000000000D2
:10435000000000000000000000000000000003005A
:104360000300030003003FF03FF0030003000300DD
:10437000030000000000000000000000000000003A
:10438000000000000000000000000000000000002D
:104390000000000000000380030003000600060088
:1043A0000400000000000000000000000000000009
:1043B0000000000000003FE03FE0000000000000BF
:1043C00000000000000000000000000000000000ED
:1043D00000000000000000000000000000000000DD
:1043E0000000000000000380038003800000000044
:1043F00000000000000000000060006000C000C07D
:1044000000C00180018003000300060006000C00CC
:104410000C000C0018001800000000000000000054
:1044200000000F801FC018C0306030603060306006
:1044300030603060306018C01FC00F800000000086
:104440000000000000000000000003001F001F002B
:104450000300030003000300030003000300030044
:104460001FE01FE00000000000000000000000004E
:1044700000000F801FC038E03060006000C0018085
:10448000030006000C0018003FE03FE000000000C1
:10449000000000000000000000000F803FC030E07E
:1044A000006000E007C007C000E00060006060E05E
:1044B0007FC03F80000000000000000000000000FE
:1044C000000001C003C003C006C00CC00CC018C06F
:1044D00030C03FE03FE000C003E003E00000000028
:1044E000000000000000000000001FC01FC01800F6
:1044F00018001F801FC018E000600060006030E0FE
:104500003FC01F800000000000000000000000000D
:10451000000003E00FE01E001800380037803FC0A5
:1045200038E03060306018E01FC0078000000000F5
:10453000000000000000000000003FE03FE03060AD
:10454000006000C000C000C0018001800180030045
:104550000300030000000000000000000000000055
:1045600000000F801FC038E0306038E01FC01FC05F
:1045700038E03060306038E01FC00F80000000007D
:10458000000000000000000000000F001FC038C045
:104590003060306038E01FE00F6000E000C003C012
:1045A0003F803E000000000000000000000000000E
:1045B0000000000000000000000003800380038072
:1045C0000000000000000380038003800000000062
:1045D00000000000000000000000000000000000DB
:1045E000000001C001C001C0000000000000038005
:1045F00003000600060004000000000000000000A8
:10460000000000000000003000F003C007001C00A4
:1046100078001C00070003C000F00030000000001C
:10462000000000000000000000000000000000008A
:1046300000007FF07FF0000000007FF07FF00000BE
:10464000000000000000000000000000000000006A
:1046500000000000000030003C000F00038000E07C
:10466000007800E003800F003C00300000000000F4
:104670000000000000000000000000000F801FC0CC
:1046800018601860006001C0038003000000000093
:10469000070007000000000000000000000000000C
:1046A000000003800C8008401040104011C01240F0
:1046B0001240124011C0100008000840078000009E
:1046C0000000000000000000000000001F801F80AC
:1046D000038006C006C00CC00C601FE01FE0303035
:1046E00078787878000000000000000000000000EA
:1046F000000000003F803FC01860186018E01FC035
:104700001FE01870183018303FF03FE00000000044
:1047100000000000000000000000000007B00FF0E3
:104720001C703830300030003000300038301C70E1
:104730000FE007C0000000000000000000000000C3
:10474000000000007F807FC030E0307030303030BB
:1047500030303030307030E07FC07F8000000000AB
:104760000000000000000000000000003FF03FF0EB
:104770001830183019801F801F80198018301830A9
:104780003FF03FF0000000000000000000000000CB
:10479000000000003FF03FF01830183019801F80F3
:1047A0001F801980180018003F003F000000000023
:1047B00000000000000000000000000007B01FF033
:1047C000187030303000300031F831F830301830A7
:1047D0001FF007C000000000000000000000000003
:1047E000000000003CF03CF01860186018601FE00A
:1047F0001FE01860186018603CF03CF000000000FA
:104800000000000000000000000000001FE01FE0AA
:104810000300030003000300030003000300030080
:104820001FE01FE00000000000000000000000008A
:104830000000000003F803F8006000600060006002
:1048400030603060306030E03FC00F80000000001A
:104850000000000000000000000000003EF83EF8EC
:1048600018E019801B001F001D8018C018C01860B8
:104870003E783E380000000000000000000000000C
:10488000000000003F003F000C000C000C000C007A
:104890000C000C300C300C303FF03FF000000000FA
:1048A0000000000000000000000000007878787828
:1048B00038703CF034B037B037B03330333030304C
:1048C0007CF87CF800000000000000000000000000
:1048D0000000000039F03DF01C601E601E601B608F
:1048E0001B6019E019E018E03EE03E6000000000A7
:1048F00000000000000000000000000007800FC062
:104900001CE03870303030303030303038701CE0DF
:104910000FC0078000000000000000000000000041
:10492000000000003FC03FE01870183018301870C9
:104930001FE01FC0180018003F003F0000000000EB
:1049400000000000000000000000000007800FC011
:104950001CE03870303030303030303038701CE08F
:104960000FC0078007B00FF00CE00000000000004F
:10497000000000003FC03FE01870183018701FE0C2
:104980001FC018E0186018703E383E180000000084
:104990000000000000000000000000000FB01FF049
:1049A0003870303038001F8007E0007030303870C9
:1049B0003FE037C0000000000000000000000000E1
:1049C000000000003FF03FF033303330333003005D
:1049D00003000300030003000FC00FC0000000002D
:1049E0000000000000000000000000003CF03CF06F
:1049F00018601860186018601860186018601CE073
:104A00000FC0078000000000000000000000000050
:104A10000000000078F078F03060306018C018C0F6
:104A20000D800D800D8007000700070000000000CA
:104A30000000000000000000000000007C7C7C7C86
:104A4000301833983398339836D816D01C701C70B1
:104A50001C70183000000000000000000000000082
:104A60000000000078F078F0306018C00D8007007A
:104A700007000D8018C0306078F078F0000000006A
:104A80000000000000000000000000003CF03CF0CE
:104A900018600CC0078007800300030003000300B8
:104AA0000FC00FC000000000000000000000000068
:104AB000000000001FE01FE0186018C00180030024
:104AC000030006000C6018601FE01FE000000000FB
:104AD0000000000000000000000003C003C003004D
:104AE00003000300030003000300030003000300AE
:104AF00003000300030003C003C000000000000027
:104B0000180018000C000C000C0006000600030042
:104B100003000180018000C000C000C00060006090
:104B2000000000000000000000000F000F00030064
:104B3000030003000300030003000300030003005D
:104B40000300030003000F000F000000000000003E
:104B50000000020007000D8018C030602020000017
:104B60000000000000000000000000000000000045
:104B70000000000000000000000000000000000035
:104B80000000000000000000000000000000000025
:104B9000000000000000000000000000FFFCFFFC1F
:104BA000000004000300008000000000000000007E
:104BB00000000000000000000000000000000000F5
:104BC00000000000000000000000000000000000E5
:104BD00000000FC01FE000600FE01FE0386030E011
:104BE0003FF01F7000000000000000000000000007
:104BF0000000700070003000300037803FE0386007
:104C000030303030303038607FE077800000000096
:104C10000000000000000000000000000000000094
:104C2000000007B01FF0183030303000300038304E
:104C30001FF00FC000000000000000000000000096
:104C40000000007000700030003007B01FF01870D6
:104C500030303030303038701FF807B800000000B6
:104C60000000000000000000000000000000000044
:104C7000000007801FE018603FF03FF03000183060
:104C80001FF007C00000000000000000000000004E
:104C9000000003F007F0060006001FE01FE006001A
:104CA00006000600060006001FE01FE000000000EE
:104CB00000000000000000000000000000000000F4
:104CC000000007B81FF818703030303030301870DE
:104CD0001FF007B0003000700FE00FC000000000B0
:104CE000000038003800180018001BC01FE01C60CE
:104CF00018601860186018603CF03CF0000000007C
:104D0000000000000000000000000300030000009D
:104D100000001F001F000300030003000300030046
:104D20001FE01FE000000000000000000000000085
:104D3000000003000300000000001FC01FC000C0EF
:104D400000C000C000C000C000C000C000C001C062
:104D50003F803F00000000000000380038001800CD
:104D600018001BE01BE01B001E001E001B0019802A
:104D700039F039F0000000000000000000000000E1
:104D800000001F001F0003000300030003000300D6
:104D900003000300030003001FE01FE00000000009
:104DA0000000000000000000000000000000000003
:104DB00000007EE07FF03330333033303330333037
:104DC0007BB87BB80000000000000000000000007D
:104DD000000000000000000000003BC03FE01C603D
:104DE00018601860186018603CF03CF0000000008B
:104DF00000000000000000000000000000000000B3
:104E0000000007801FE0186030303030303018600C
:104E10001FE007800000000000000000000000000C
:104E20000000000000000000000077807FE0386094
:104E300030303030303038603FE037803000300084
:104E40007C007C000000000000000000000000006A
:104E5000000007B81FF8187030303030303018704C
:104E60001FF007B00030003000F800F8000000002C
:104E7000000000000000000000003CE03DF00F30AA
:104E80000E000C000C000C003FC03FC000000000F2
:104E90000000000000000000000000000000000012
:104EA000000007E01FE018601E000FC001E018605E
:104EB0001FE01F8000000000000000000000000054
:104EC000000000000C000C000C003FE03FE00C0074
:104ED0000C000C000C000C300FF007C000000000AC
:104EE00000000000000000000000000000000000C2
:104EF000000038E038E0186018601860186018E0AA
:104F00001FF00F7000000000000000000000000013
:104F10000000000000000000000078F078F0306031
:104F200018C018C00D800D800700070000000000A9
:104F30000000000000000000000000000000000071
:104F4000000078F078F03260326037E01DC01DC09C
:104F500018C018C0000000000000000000000000A1
:104F6000000000000000000000003CF03CF00CC01D
:104F70000780030007800CC03CF03CF000000000FC
:104F80000000000000000000000000000000000021
:104F9000000078F078F0306018C018C00D800F80E5
:104FA0000700060006000C007F007F0000000000E4
:104FB000000000000000000000001FE01FE018C01B
:104FC0000180030006000C601FE01FE000000000ED
:104FD0000000000000000000000001C003C003004A
:104FE000030003000300030007000E000700030096
:104FF00003000300030003C001C000000000000024
:10500000000003000300030003000300030003008B
:105010000300030003000300030003000300030078
:10502000030000000000000000001C001E0006003D
:1050300006000600060006000700038007000600C1
:105040000600060006001E001C0000000000000014
:105050000000000000000000000000000E003F30D3
:1050600033F001E00000000000000000000000003C
:105070000000000000000000000000000000000030
:105080000000000000000000000000000000000020
:10509000000000000000000000000C000C000C00EC
:1050A0000C000C000C000C000C0000000C000000B8
:1050B0000000000000000000000000001DC01DC036
:1050C0000880088008800000000000000000000048
:1050D000000000000000000000000D800D800D8029
:1050E0000D803FC01B003FC01B001B001B001B00AE
:1050F000000000000000000004001F8031803180AB
:1051000038001E000F000380318031803F00040012
:10511000040000000000000000001800240024002B
:1051200018C007801E00318002400240018000004C
:105130000000000000000000000000000F00180048
:10514000180018000C001D80370033001D8000007F
:105150000000000000000000000000000700070041
:105160000200020002000000000000000000000039
:105170000000000000000000000003000300060023
:105180000E000C000C000C000C000E0006000300CA
:1051900003000000000000000000180018000C00D0
:1051A0000600060006000600060006000C001C00B3
:1051B00018000000000000000000060006003FC0CC
:1051C0003FC00F001F801980000000000000000099
:1051D00000000000000000000000000000000400CB
:1051E000040004003F8004000400040000000000EC
:1051F00000000000000000000000000000000000AF
:1052000000000000000000000000060004000C0088
:10521000080008000000000000000000000000007E
:10522000000000003F8000000000000000000000BF
:10523000000000000000000000000000000000006E
:10524000000000000000000000000C000C00000046
:10525000000000000000000000C000C001800180CC
:105260000300030006000C000C00180018003000BA
:10527000300000000000000000000E001B00318024
:10528000318031803180318031801B000E00000080
:105290000000000000000000000006003E000600C4
:1052A0000600060006000600060006003FC00000DB
:1052B000000000000000000000000F001980318095
:1052C0003180030006000C00180030003F80000011
:1052D000000000000000000000003F00618001802D
:1052E00003001F0003800180018061803F000000F7
:1052F00000000000000000000000070007000F0091
:105300000B001B00130033003F8003000F800000E0
:10531000000000000000000000001F8018001800BE
:1053200018001F0011800180018021801F000000F3
:105330000000000000000000000007801C001800B2
:105340003000370039803180318019800F00000033
:10535000000000000000000000007F004300030088
:1053600006000600060006000C000C000C00000001
:10537000000000000000000000001F0031803180AC
:1053800031801F0031803180318031801F0000006A
:10539000000000000000000000001E00330031800B
:1053A000318033801D800180030007003C00000035
:1053B00000000000000000000000000000000000ED
:1053C0000C000C000000000000000C000C000000AD
:1053D00000000000000000000000000000000000CD
:1053E00003000300000000000000060004000800A5
:1053F00008000000000000000000000000C00300E2
:1054000004001800600018000400030000C0000041
:10541000000000000000000000000000000000008C
:1054200000007FC000007FC00000000000000000FE
:1054300000000000000000000000000060001800F4
:105440000400030000C00300040018006000000016
:105450000000000000000000000000001F0031807C
:105460003180018007000C000C0000000C000000DF
:10547000000000000000000000000E0011002100EC
:1054800021002700290029002700200011000E001C
:105490000000000000000000000000003F000F00BE
:1054A0000900198019801F8030C030C079E00000E9
:1054B0000000000000000000000000007F003180BC
:1054C000318031803F003180318031807F000000A9
:1054D0000000000000000000000000001F4030C07D
:1054E0006040600060006000604030801F0000008D
:1054F0000000000000000000000000007F0031807C
:1055000030C030C030C030C030C031807F000000BB
:105510000000000000000000000000007F803080DC
:10552000308032003E003200308030807F800000CA
:105530000000000000000000000000007FC03040BC
:10554000304032003E003200300030007C0000006D
:105550000000000000000000000000001E803180FC
:1055600060806000600067C0618031801F000000C3
:105570000000000000000000000000007BC031803F
:10558000318031803F803180318031807BC00000AC
:105590000000000000000000000000003FC0060006
:1055A0000600060006000600060006003FC00000D8
:1055B0000000000000000000000000001FC0030009
:1055C0000300030003006300630063003E0000006B
:1055D0000000000000000000000000007BC03180DF
:1055E000330036003C003E003300318079C00000BB
:1055F0000000000000000000000000007E00180015
:105600001800180018001840184018407FC000000B
:10561000000000000000000000000000E0E060C0AA
:1056200071C07BC06AC06EC064C060C0FBE0000097
:1056300000000000000000000000000073C0318086
:1056400039803D803580378033803180798000001B
:105650000000000000000000000000001F0031807A
:1056600060C060C060C060C060C031801F000000CA
:105670000000000000000000000000007F003180FA
:105680003180318031803F00300030007E000000EA
:105690000000000000000000000000001F0031803A
:1056A00060C060C060C060C060C031801F000CC0BE
:1056B0001F80000000000000000000007F0031801B
:1056C000318031803E003300318031807CE0000049
:1056D0000000000000000000000000001F8031807A
:1056E000318038001F000380318031803F0000008E
:1056F0000000000000000000000000007F804C80DF
:105700004C804C800C000C000C000C003F00000092
:105710000000000000000000000000007BC031809D
:105720003180318031803180318031801F00000034
:105730000000000000000000000000007BC031807D
:1057400031801B001B001B000A000E000E00000031
:10575000000000000000000000000000FBE060C04E
:1057600064C06EC06EC02A803B803B8031800000E8
:105770000000000000000000000000007BC031803D
:105780001B000E000E000E001B0031807BC00000CD
:1057900000000000000000000000000079E030C0C0
:1057A00019800F0006000600060006001F8000009A
:1057B0000000000000000000000000003F80218089
:1057C0002300060004000C00188030803F80000099
:1057D0000000000000000000000007800600060036
:1057E0000600060006000600060006000600060089
:1057F0000780000000000000300030001800180092
:105800000C000C000600030003000180018000C0B2
:1058100000C000000000000000001E00060006009E
:105820000600060006000600060006000600060048
:105830001E0000000000000004000A000A00110021
:105840002080208000000000000000000000000018
:105850000000000000000000000000000000000048
:105860000000000000000000000000000000000038
:10587000000000000000FFE008000400020000003B
:105880000000000000000000000000000000000018
:105890000000000000000000000000000000000008
:1058A0001F00018001801F80318033801DC00000F7
:1058B0000000000000000000000070003000300018
:1058C0003700398030C030C030C0398077000000E8
:1058D00000000000000000000000000000000000C8
:1058E0001E80318060806000608031801F00000079
:1058F0000000000000000000000003800180018023
:105900001D80338061806180618033801DC0000014
:105910000000000000000000000000000000000087
:105920001F00318060C07FC0600030C01F80000059
:105930000000000000000000000007E00C000C0068
:105940003F800C000C000C000C000C003F8000009D
:105950000000000000000000000000000000000047
:105960001DC0338061806180618033801D80018033
:1059700001801F00000000000000700030003000B7
:105980003700398031803180318031807BC0000028
:1059900000000000000000000000060006000000FB
:1059A0001E00060006000600060006003FC00000BC
:1059B00000000000000000000000060006000000DB
:1059C0003F00030003000300030003000300030083
:1059D00003003E00000000000000700030003000B6
:1059E000378036003C003C003600330077C00000B2
:1059F000000000000000000000001E00060006007D
:105A00000600060006000600060006003FC0000073
:105A10000000000000000000000000000000000086
:105A20007F8036C036C036C036C036C076E0000053
:105A30000000000000000000000000000000000066
:105A40007700398031803180318031807BC0000027
:105A50000000000000000000000000000000000046
:105A60001F00318060C060C060C031801F00000036
:105A70000000000000000000000000000000000026
:105A80007700398030C030C030C0398037003000F6
:105A900030007C000000000000000000000000005A
:105AA0001DC0338061806180618033801D800180F2
:105AB000018007C00000000000000000000000009E
:105AC0007B801CC018001800180018007F00000020
:105AD00000000000000000000000000000000000C6
