:020000040800F2
:10000000381D0020D100000855150008A102000885
:1000100000000000000000000000000000000000E0
:10002000000000000000000000000000431900086C
:1000300000000000000000004119000845190008F8
:10004000E3000008E3000008E3000008E300000804
:10005000E3000008E3000008E30000086102000874
:10006000E300000889010008D1010008E30000084E
:10007000E3000008E3000008E3000008E3000008D4
:10008000E3000008E3000008E3000008E3000008C4
:10009000E3000008E3000008E3000008E3000008B4
:1000A000E3000008E3000008E3000008E3000008A4
:1000B000E3000008E3000008E30000080348854669
:1000C00000F050F80048004779220008381D002051
:1000D0000448804704480047FEE7FEE7FEE7FEE7E6
:1000E000FEE7FEE7511A0008BD00000830B50B46D8
:1000F000014600202022012409E00D46D5409D4202
:1001000005D31D469540491B254695404019154687
:10011000521E002DF1DC30BD70B5002425460028AC
:1001200001DA01244042002901DA01254942FFF7A2
:10013000DDFFAC4200D04042002C00D0494270BDEF
:10014000D2B201E00270401C491EFBD2704700226F
:10015000F6E710B513460A4604461946FFF7F0FFC6
:10016000204610BD064C0125064E05E0E36807CC8D
:100170002B430C3C98471034B442F7D3FFF7A2FF4F
:1001800084710008A471000810B500BF02200D4959
:10019000486000BF00BF0120486000BF00BF0420CE
:1001A000486000BF084600210246074B5B5CD358FD
:1001B0005B085B00044C645C135100BF01200349E1
:1001C000088010BD0000024050710008A40000200B
:1001D00000BF21480068202108404009002805D0C0
:1001E00000BF20201C49486000BF00BF00BF1A4864
:1001F000006880210840C009002805D000BF802089
:100200001549486000BF00BF00BF134800680121C6
:1002100049020840400A00280DD000BF08460E4998
:10022000486000BF00BF2020486000BFC0010B49EC
:10023000886100BF00BF00BF074800680121C902F4
:100240000840C00A002805D000BF0846024948609F
:1002500000BF00BF704700000000024000040050D3
:1002600010B5FF20013000F00BFA002803D0FF206A
:10027000013000F025F90120400200F001FA0028C9
:1002800003D00120400200F01BF90120800200F0A1
:10029000F7F9002803D00120800200F011F910BD09
:1002A00000BFFEE708B50549C96B0143034AD163A6
:1002B0001146C96B0140009100BF08BD001002400B
:1002C00070B5049C0546102C08D1094E765C761951
:1002D000F260074E765C7619B36007E0044E765CF8
:1002E0007619B260024E765C7619F36070BD00003C
:1002F000B470000810B50246044B5B5CD3585B0831
:100300005B00024C645C135110BD0000807000085B
:1003100010B50246044B5B5CD3585B085B00024C93
:10032000645C135110BD0000B470000810B50246A3
:10033000044B5B5CD35801242343024C645C13518F
:1003400010BD00008070000810B50246044B5B5CD5
:10035000D35802242343024C645C135110BD0000A7
:10036000B470000810B50246044B5B5CD3580824F7
:100370002343024C645C135110BD0000B4700008AC
:1003800010B5024613460348405C1858024C204002
:1003900010BD0000B47000081040000030B50346E6
:1003A000054C645C1C5903252D03AC431443024DDA
:1003B0006D5C5C5130BD0000E870000830B503464C
:1003C000054C645CE4186468240C24041443024D56
:1003D0006D5CED186C6030BD8070000830B5034670
:1003E000044C645C1C59044D2C401443014D6D5C5D
:1003F0005C5130BDE8700008EFBFFFFF30B5034629
:10040000044C645C1C598025AC431443014D6D5C65
:100410005C5130BDE870000830B50346054C645CA3
:100420001C590325AD02AC431443024D6D5C5C5175
:1004300030BD0000E870000830B50346044C645C31
:100440001C592025AC431443014D6D5C5C5130BDFB
:10045000E870000830B50346044C645C1C59402524
:10046000AC431443014D6D5C5C5130BDE870000835
:1004700070B5094C4440A40AE5002B1B8C00074DC5
:1004800064199D006459A409A40114438D00034E0E
:10049000AD199E00AC5170BD000002400008024042
:1004A00030B50346054C645C1C5903252D02AC4352
:1004B0001443024D6D5C5C5130BD0000E8700008D3
:1004C000014908617047000000180240024949686C
:1004D0008143014A516070478018024002494969CE
:1004E0008143014A516170478018024002490968FE
:1004F0008143014A1160704780180240024909692E
:100500008143014A116170478018024002494968DD
:100510000143014A5160704780180240024949690D
:100520000143014A516170478018024002494968FD
:100530000143014A516070470018024002490968AE
:100540000143014A1160704780180240024909695D
:100550000143014A1161704780180240024909684D
:100560000143014A116070470018024070B504460B
:100570000025207A002873D0206800284BD0607AAC
:10058000002804D0012809D0022815D10DE02068E8
:10059000FFF79CFF2068FFF7D1FF0FE02068FFF70F
:1005A000A5FF2068FFF7B2FF08E02068FFF7C6FF4D
:1005B0002068FFF7ABFF01E0012500BF00BFA07A74
:1005C000002828D0A07A012804D002280DD00328C2
:1005D0001DD115E02068294949688143274A5160A7
:1005E00000BF2068FFF7BAFF14E0206823490968BC
:1005F0008143224A116000BF2068FFF797FF09E09E
:100600002068FFF7ABFF2068FFF790FF02E00220B1
:10061000054300BF00BF606800282DD0607A002825
:1006200004D0012809D0022816D10DE06068FFF738
:1006300055FF6068FFF78AFF11E06068FFF75EFF13
:100640006068FFF76BFF0AE06068FFF77FFF606894
:10065000FFF764FF03E003E00420054300BF0BE065
:100660002068FFF743FF2068FFF730FF6068FFF75F
:1006700045FF6068FFF732FF284670BD0018024052
:100680000146044800690840884201D101207047B2
:100690000020FCE70018024010B5084A8B071B0F2A
:1006A000D2580C0C0723A3409A430C0C0346A340DA
:1006B0001A43024B8C07240F1A5110BD60180240D8
:1006C000F0B502460B4600266AE00124B4401968E2
:1006D0002140002963D05868012802D058680228B8
:1006E00015D1986894680D464D436F00ED19AC43E1
:1006F0000D464D4345432C43946000BFD868546871
:100700008C430D4645432C43546000BF00BF18691D
:10071000D4680D464D436F00ED19AC430D464D4373
:1007200045432C43D46000BF5868022829D1FF29D3
:1007300011D85869146A0D464D434D434D432F015E
:100740007D1BAC430D464D434D434D4345432C4328
:10075000146200BF15E05F69080A40430C0A604359
:100760000C0A60430401241A506AA0430C0A644333
:100770000D0A6C430D0A6C437C432043506200BF5A
:1007800000BF586814680D464D436F00ED19AC4327
:100790000D464D4345432C43146000BF00BF761CFB
:1007A0001868F040002890D1F0BD816270478162E6
:1007B00070478161704730B503680C464C43650053
:1007C0006419A3430C464C4354432343036030BD98
:1007D00030B5C3680C464C4365006419A3430C460E
:1007E0004C4354432343C36030BD000008B5054962
:1007F000496B0143034A51631146496B0140009123
:1008000000BF08BD0010024008B50549496B01430F
:10081000034A51631146496B0140009100BF08BD76
:100820000010024008B50549496B0143034A516372
:100830001146496B0140009100BF08BD0010024005
:1008400008B50549496B0143034A51631146496B99
:100850000140009100BF08BD0010024070B5044681
:100860007D25ED0029462046FFF740FC401E044947
:100870004861002088610520086100BF70BD00004C
:1008800000E000E0016840221143016070474168C8
:1008900002221143416070474168082211434160C0
:1008A0007047000030B50246012300BF10684024A5
:1008B00020408009002826D14C6808682043CC6875
:1008C00020430C6920434C6920438C692043CC6948
:1008D00020430C6A204314680E4D2C4020431060C6
:1008E0004C69240C8868204354680B4D2C402043ED
:1008F00050605C03086AA04204D1486A84B2146163
:1009000000BF00BF0023D0690124E402A043D061EE
:10091000184630BD4000FFFFFBF0FFFF4268102388
:100920009A430A4342607047017370470149086067
:1009300070470000A8000020F0B5034614460129C6
:1009400001D1002524E0042901D1012520E010294E
:1009500001D102251CE0402901D1032518E0FF2523
:100960000135A94201D1042512E00125AD02A942B9
:1009700001D105250CE001252D03A94201D1062551
:1009800006E001252D04A94201D1072500E0082534
:100990002846094D2E5C1D46183572191568074EFC
:1009A000375C0326BE40B543260C044F3F5CBE4077
:1009B00035431560F0BD0000237100083571000853
:1009C000F0B503461446012901D1002524E004298D
:1009D00001D1012520E0102901D102251CE0402988
:1009E00001D1032518E0FF250135A94201D10425D5
:1009F00012E00125AD02A94201D105250CE0012537
:100A00002D03A94201D1062506E001252D04A942A6
:100A100001D1072500E008252846094D2E5C1D461A
:100A2000183572191568074E375CF026BE40B5437D
:100A3000260C044F3F5CBE4035431560F0BD0000FE
:100A4000237100083571000870B5012901D1002417
:100A500024E0042901D1012420E0102901D102243D
:100A60001CE0402901D1032418E0FF240134A142F5
:100A700001D1042412E00124A402A14201D10524E1
:100A80000CE001242403A14201D1062406E0012444
:100A90002404A14201D1072400E008242346046A6B
:100AA000054DEE5C0A25B540AC43034DEE5C1546A2
:100AB000B5402C43046270BD3E710008F0B503469A
:100AC0001446012901D1002524E0042901D1012582
:100AD00020E0102901D102251CE0402901D1032585
:100AE00018E0FF250135A94201D1042512E00125B6
:100AF000AD02A94201D105250CE001252D03A94233
:100B000001D1062506E001252D04A94201D10725C2
:100B100000E008252846094D2E5C1D46183572193F
:100B20001568074E375C0C26BE40B543260C044FB3
:100B30003F5CBE4035431560F0BD000023710008E6
:100B40003571000810B5024613682648824206D067
:100B500001208007824202D02348824205D11846F4
:100B60007024A0434C68204303461E48824212D0A2
:100B70000120800782420ED01B4882420BD01B48C6
:100B8000824208D01A48824205D01A48824202D0D6
:100B90001948824206D1184603242402A043CC6897
:100BA0002043034613608868D06200BF08889062C3
:100BB00000BF0C48824208D00D48824205D00D4843
:100BC000824202D00C48824203D10869106300BF00
:100BD00000BF00BF506901242043506100BF0020C6
:100BE00010BD0000002C0140000400400020004027
:100BF00000400140004401400048014070B50246F9
:100C0000012901D1002424E0042901D1012420E09C
:100C1000102901D102241CE0402901D1032418E04D
:100C2000FF240134A14201D1042412E00124A402D2
:100C3000A14201D105240CE001242403A14201D1E9
:100C4000062406E001242404A14201D1072400E087
:100C500008242346064CE55C144618342819046819
:100C6000044DEE5C0425B540AC43046070BD00004B
:100C7000237100082C710008F8B506460C4615468D
:100C800001273903601A8C4223D008DC012C0ED0D6
:100C9000102C12D0E01FF93800282CD113E00F21BE
:100CA0000903401A1BD00901401A24D11DE029462E
:100CB000304600F051FC07461EE02946304600F061
:100CC000A3FC074618E02946304600F001FD074620
:100CD00012E02946304600F05BFD07460CE029464D
:100CE000304600F0A1FD074606E02946304600F0F8
:100CF000E1FD074600E000BF00BF3846F8BD816354
:100D00007047000008B501460A4A1269009200BF08
:100D10000846421C002A00D0401C07E0054A126920
:100D200001231B041A40002A00D0401E0028F5D1E0
:100D300008BD000000E000E008B501200C49896B07
:100D400001430B4A91631146896B0140009100BF3A
:100D500000BF0021092001F043FA092001F0F4F955
:100D600000210A2001F03CFA0A2001F0EDF908BD4B
:100D70000010024038B500213648FFF7C9FA00BF1D
:100D800002203449486000BF3348FFF780FD00214E
:100D90003048FFF7D9FA00212E48FFF7E3FA002187
:100DA0002C48FFF7EDFA04462B4801460C310D465E
:100DB0002B462A4A002127480094FFF781FA012197
:100DC0002448FFF7A5FA00BF20202249486000BF51
:100DD0002348FFF75CFD01211E48FFF7C3FA0121FC
:100DE0001C48FFF7CDFA04461D4801460C310D465C
:100DF0002B461C4A012117480094FFF761FA022193
:100E00001448FFF785FA00BF0120400211494860ED
:100E100000BF00BF124840680121084310494860E4
:100E200000BF02210B48FFF78FFA02210948FFF7A4
:100E300099FA02210748FFF7A3FA04460848014639
:100E40000C310D46084B2A46022102480094FFF758
:100E500037FA38BD0000024000300140D4000020C5
:100E60000038004040000020D418002000B589B0B0
:100E7000002006900790089018216846FFF767F950
:100E80000420FFF7B3FC2020FFF7B0FC0120FFF7A0
:100E9000ADFC0220FFF7AAFC0820FFF7A7FC1021F9
:100EA00005200007FFF783FC012109035C48FFF7D9
:100EB0007EFC40215B48FFF77AFC80215948FFF710
:100EC00076FC20215648FFF772FC1020009001208C
:100ED00001900320029000200390049069460520B1
:100EE0000007FFF7EDFB01200003009001200190B7
:100EF0000320029000200390049069464848FFF7C1
:100F0000DFFB402000900120019003200290002090
:100F10000390049069464348FFF7D2FB802000907D
:100F20000120019003200290002003900490694664
:100F30003C48FFF7C5FB20200090012001900220D3
:100F4000029000200390049069463548FFF7B8FBF3
:100F500035490120FFF7A0FB02210120FFF79CFB90
:100F600032490120FFF798FB012080020690012101
:100F700008A80170002141700221817006A8FFF7C6
:100F8000F5FAFF2001300690012108A80170002128
:100F900041700221817006A8FFF7E8FA01204002A3
:100FA0000690012108A80170002141700221817082
:100FB00006A8FFF7DBFA012291021948FFF708FCA7
:100FC000012211021648FFF703FC012251021448C6
:100FD000FFF7FEFB0022012189021148FFF7EBFB1E
:100FE0000022FF2101310E48FFF7E5FB002201211D
:100FF00049020B48FFF7DFFB0121072001F0B4F89D
:101000000720002809DB00BF00BFC206D20E012165
:101010009140074A116000BF00BF00BF09B000BD8A
:1010200000040050000800500200100002000800F8
:1010300000E100E000B591B0282107A8FFF787F88C
:10104000182101A8FFF783F801200003404909682F
:1010500001433F4A1160114609680140009100BFF9
:1010600000BF0120FFF7D0FB20200190022002905A
:101070000020039004900590069001A90520000728
:10108000FFF71EFB402001900220029000200390F9
:1010900004900590069001A905200007FFF710FBBA
:1010A000802001900220029000200390049005907F
:1010B000069001A905200007FFF702FB112200217D
:1010C0002448FFF7D5F9102200212248FFF786F9BE
:1010D000002211461F48FFF761F9002211461D4802
:1010E000FFF7AAF9002211461A48FFF7B3F9802248
:1010F00000211848FFF782F9002211461548FFF732
:10110000CFF9002211461348FFF786F90020079017
:10111000FF200530089007200002099000200A9067
:101120000B90012040020C9008200D9000200E90A2
:101130000F900720109007A90748FFF7B3FB002185
:101140000548FFF7EBFB0448FFF7A6FB11B000BD15
:1011500040100240000002400030014000B591B054
:10116000282107A8FEF7F3FF182101A8FEF7EFFFDB
:10117000012080035449C96B0143534AD16311468E
:10118000C96B0140009100BF00BF0220FFF73CFB8C
:101190000120C002019002200290002003900490E0
:1011A0000590069001A94948FFF78AFA01204003FB
:1011B0000190022002900020039004900590069078
:1011C00001A94248FFF77CFA012080030190022028
:1011D00002900020039004900590069001A93B48DE
:1011E000FFF76EFA122202213948FFF741F9002277
:1011F00002213748FFF7F2F8002202213448FFF7B6
:10120000CDF8002202213248FFF716F90022022110
:101210002F48FFF71FF9802202212D48FFF7EEF833
:10122000002202212A48FFF73BF900220221284828
:10123000FFF7F2F8132201212548FFF719F91022D0
:1012400001212348FFF7CAF8002201212048FFF7B7
:10125000A5F8002201211E48FFF7EEF80022012127
:101260001B48FFF7F7F8802201211948FFF7C6F85D
:10127000002201211648FFF713F90022012114482A
:10128000FFF7CAF800200790FF20053008900720DC
:101290000002099000200A900B90012040020C905F
:1012A00028200D9000200E900F900720109007A985
:1012B0000848FFF7F7FA00210648FFF72FFB05481B
:1012C000FFF7EAFA11B000BD001002400004005020
:1012D000000002400038004000B58FB014210AA879
:1012E000FEF735FF202102A8FEF731FF0120C003E1
:1012F000184909680143174A1160114609680140FD
:10130000019100BF00BF14486946088500200B907A
:10131000C7200C9000200D900AA91048FFF712FC7E
:1013200000BF0E480068802188430C49086000BF58
:1013300000200290039004900590069002AA0121DB
:101340000648FFF799FC01210448FFF757FC0FB04E
:1013500000BD000040100240FF18000000200040C7
:1013600000B58DB0142108A8FEF7F1FE182102A8DF
:10137000FEF7EDFE01204A49C96B0143484AD1639B
:101380001146C96B0140019100BF00BFFFF74AFA47
:101390000220FFF747FA0120C003029002200390C9
:1013A000002004900590012006900220079002A9D9
:1013B00005200007FFF784F908200290022003901F
:1013C000002004900590012006900220079002A9B9
:1013D0003448FFF775F900206946088409903248BF
:1013E0000A9000200B9008A901208007FFF7AAFBB4
:1013F00000BF01208007006880210843C9050860FC
:1014000000BF01208968294A114001438207916089
:1014100000BF020401218007FFF78EFA0122920427
:1014200001218807FFF74AFB002201218807FFF707
:10143000C7FA002201218807FFF706FB01221204E8
:1014400010218806FFF778FA002210218806FFF79E
:1014500035FB002210218806FFF7B2FA0022102186
:101460008806FFF7F1FA0820C106096808229143AF
:101470000143C206116000BF002011464968702276
:101480009143014301229207516000BF00BF104603
:10149000806880218843C905886000BF0DB000BD09
:1014A0000010024000040050FFFF0000F8FFFEFFA4
:1014B00000B587B0182101A8FEF749FE01204006BB
:1014C000FEF7F0FE0220FFF7BBF90120FFF7B8F9A5
:1014D0000120C0030190032002900020059001A983
:1014E0000848FFF7EDF8FF2001300190032002903B
:1014F0000020059001A905200007FFF7E1F807B0DB
:1015000000BD00000004005000B587B0182101A8FC
:10151000FEF71DFE01208006FEF7C4FE0820FFF73F
:101520008FF901200190032002900020059001A96D
:101530000748FFF7C5F8042001900320029000201F
:10154000059001A90248FFF7BBF807B000BD0000F5
:10155000000C005000BFFEE770B50246106A40085C
:1015600040001062136A55689469A408A4002046DC
:10157000204E30400E683043044618460226B043E1
:101580000E6930430346580840004E683043034616
:101590001948824208D01948824205D01848824230
:1015A00002D0184882421CD118460826B0434E6922
:1015B000B6003043034618460426B0438E68B60092
:1015C000304303462846FF260136B0438E69304338
:1015D0000546284601267602B043CE6976003043A0
:1015E000054655609461C868506300BF13620020CF
:1015F00070BD00008FFFFEFF002C01400040014045
:101600000044014000480140F8B504460D46206AF8
:10161000102188432062266A60680090A769032130
:101620000902384688430746384624490840296855
:1016300009020843074630462021884329690901E9
:10164000084306463046102188436968090108436B
:1016500006461B48844208D01A48844205D01A48DE
:10166000844202D0194884421DD1304680218843EB
:101670006969890108430646304640218843A968C4
:101680008901084306460121890200988843A96917
:101690008900084300900121C90200988843E96944
:1016A000C9000843009000986060A7612046E9687F
:1016B000FFF725FB26620020F8BD0000FF8FFFFE2C
:1016C000002C01400040014000440140004801401E
:1016D00070B50246106AFF260136B0431062136AE5
:1016E0005568D469A408A4002046244E30400E68F2
:1016F00030430446184601267602B0430E6936028E
:10170000304303461846FF260136B0434E68360282
:10171000304303461A48824208D01A48824205D014
:101720001948824202D0194882421FD11846012628
:10173000F602B0434E69B60230430346184601260E
:10174000B602B0438E68B6023043034628460126EF
:101750003603B0438E6936013043054628460126DC
:101760007603B043CE697601304305465560D461B7
:10177000C868D06300BF1362002070BD8FFFFEFFFA
:10178000002C01400040014000440140004801405D
:1017900070B50246106A01263603B0431062146A1F
:1017A0005568D369032636021846B04303461846E7
:1017B000184E30400E68360230430346204601265C
:1017C0007603B0430E6936033043044620460126B3
:1017D0003603B0434E683603304304460E48824217
:1017E00008D00E48824205D00D48824202D00D48F2
:1017F000824207D128460126B603B0438E69B6015E
:10180000304305465560D361C868106400BF146258
:10181000002070BDFF8FFFFE002C01400040014002
:10182000004401400048014030B50246106A0125DD
:101830002D04A8431062136A546D2046184D2840A9
:101840000D6828430446184601256D04A8430D8AF7
:101850002D0428430346184601252D04A8438D88EE
:101860002D04284303460F48824208D00E48824286
:1018700005D00E48824202D00D48824207D15068FE
:1018800001252D04A8438D692D022843506054651D
:10189000C868956D906500BF1362002030BD0000E0
:1018A0008FFFFEFF002C014000400140004401403A
:1018B0000048014030B50246106A01252D05A843B5
:1018C0001062136A546D2046184D28400D682D0291
:1018D00028430446184601256D05A8430D8A2D05A9
:1018E00028430346184601252D05A8438D882D055C
:1018F000284303460E48824208D00E48824205D053
:101900000D48824202D00D48824207D1506801251D
:10191000AD04A8438D69AD02284350605465C86882
:10192000D06500BF1362002030BD0000FF8FFFFEB6
:10193000002C0140004001400044014000480140AB
:10194000704770477047000070B502203C49096835
:10195000C908C90001433A4A116000BF00BF00BF77
:10196000374800684007400F0228F8D100BF3548CB
:1019700000680121090408433249086000BF00BF24
:1019800000BF30480068012149040840400C00288D
:10199000F6D0032000210822930604460C431502CA
:1019A0002C431C43274DED68274E35402C43254DD5
:1019B000EC6000BF00BF2846006851050843294677
:1019C000086000BF00BF0846C068090408432946F4
:1019D000C86000BF00BF00BF1A4800680121490667
:1019E0000840400E0028F6D00020164989680F22D2
:1019F000120291430143134A916000BF0220114635
:101A00008968C908C9000143916000BF00BF00BFD9
:101A10000C488068382108401028F8D10020094976
:101A200089680722120391430143064A916000BF6F
:101A30000648FEF713FF0548FEF778FF70BD00006B
:101A400000200240001002408C80FF1F0090D00355
:101A50000120C006014988607047000000ED00E0E9
:101A6000FEB504460D4616461F462B4800888442A4
:101A70000BDA2A480088854207DA27480088864220
:101A800003DA26480088874200DBFEBDB44203DD4E
:101A900020B2344686B200BFBD4203DD28B23D46C7
:101AA00087B200BF3B4632462946204600F05CF92B
:101AB00008980112684601710898C1B268464171E0
:101AC00080211748FEF775FE002000901AE000BF45
:101AD00014488068022108400028F9D0684601793E
:101AE0001048FEF721FF00BF0E4880680221084021
:101AF0000028F9D0684641790A48FEF715FF00989A
:101B0000401C0090301B401C791B491C4843009925
:101B10008842DCD800BFB8E7280000202A00002057
:101B20000008005000300140FFB587B00F4609990A
:101B30000798884206DD079908B20999079181B292
:101B4000099100BF0A98874204DD38B20A9F81B22A
:101B50000A9100BF39460A9B099A079800F004F9D8
:101B600080214048FEF725FE07990998401A401C3D
:101B70000A99C91B491C484345003B48854203D884
:101B8000012006902E4619E06808069002260324DC
:101B90000DE021462846FEF7A9FA002906D1069451
:101BA00021462846FEF7A2FA064606E0641C0321F9
:101BB0002846FEF79BFAA042EBD800BF2B4A002034
:101BC0000292109903912A490A460C32274904923D
:101BD000002201920091274B019A9A5C00998A5841
:101BE000254B1A4005920299059A102A0AD1214BD9
:101BF0001B5C5B18039ADA601E4B1B5C5B18049A33
:101C00009A6009E01B4B1B5C5B18039A9A60194BA6
:101C10001B5C5B18049ADA6000BF14480021059130
:101C20000490144A0599515C0498091849680A0CF3
:101C3000120432430F4B0599595C09184A6000BFE2
:101C40000A480021059104901A460599515C0498B0
:101C5000425801210A430599595C425000BF0BB01C
:101C6000F0BD000000080050FFFF0000000002402F
:101C700000300140302B00081040000038B5044609
:101C8000064800940088401E83B205480088401E24
:101C900082B200210846FFF7E3FE38BD2A0000208B
:101CA0002800002008201049C880052088800C20CA
:101CB0000E49C8800720888010200D49C8800B205D
:101CC000888014200B49C8800E20888018200A497B
:101CD000C880112088800020084948803F204001AA
:101CE000088003484860704720000020180000204A
:101CF0001000002008000020000000202C00002020
:101D000010B520210148FEF754FD10BD000400501D
:101D100010B5044680210748FEF747FD21460648D6
:101D2000FEF702FE00BF04488068802108400028BA
:101D3000F9D110BD000800500030014010B5044634
:101D400080210748FEF735FD21460648FEF7ECFDE9
:101D500000BF04488068802108400028F9D110BDE8
:101D60000008005000300140F8B504460D46164604
:101D70001F462A20FFF7CCFF2004010E68460170A1
:101D800044703004010E68468170C670042100F072
:101D90005BF82B20FFF7BCFF2804010E684601709A
:101DA00045703804010E68468170C770042100F048
:101DB0004BF82C20FFF7ACFFF8BD0000014948604C
:101DC000704700002C00002010B504463620FFF7B5
:101DD0009FFF002C06D0012C0FD0022C18D0032C12
:101DE0002CD120E04820FFF7A9FFF02014490880FB
:101DF000FF2041301349088020E02820FFF79EFF94
:101E0000FF2041300E490880F0200E49088015E07F
:101E10008820FFF793FFF02009490880FF20413018
:101E2000084908800AE0E820FFF788FFFF204130DA
:101E300003490880F0200349088000BF00BF10BD9F
:101E4000280000202A000020F8B505460C46802115
:101E50001048FEF7AEFC1AE00120C003844200D90E
:101E600000E0204686B200270CE0E95D0A48FEF754
:101E70005BFD00BF08488068802108400028F9D138
:101E8000781C07B2A742F0D3AD19A41B00BF002CE9
:101E9000E2D1F8BD00080050003001407FB5044693
:101EA0000D46102105200007FEF77FFC00F02EF9FB
:101EB0000120FFF72DFF7D20C000FEF723FF392111
:101EC000684601702C214170002181703421C1705D
:101ED00002210171CB20FFF71BFF05216846FFF7A8
:101EE000B3FF002168460170C1214170302181702B
:101EF000CF20FFF70DFF03216846FFF7A5FF8521DF
:101F0000684601700021417078218170E820FFF758
:101F1000FFFE03216846FFF797FF00216846017026
:101F20004170EA20FFF7F4FE02216846FFF78CFFBC
:101F30006421684601700321417012218170812162
:101F4000C170ED20FFF7E4FE04216846FFF77CFF37
:101F5000202168460170F720FFF7DAFE012168466C
:101F6000FFF772FF102168460170C020FFF7D0FE16
:101F700001216846FFF768FF102168460170C12003
:101F8000FFF7C6FE01216846FFF75EFF3E21684667
:101F9000017028214170C520FFF7BAFE0221684672
:101FA000FFF752FF862168460170C720FFF7B0FE99
:101FB00001216846FFF748FF482168460170362036
:101FC000FFF7A6FE01216846FFF73EFF5521684650
:101FD00001703A20FFF79CFE01216846FFF734FFAD
:101FE00000216846017018214170B120FFF790FE72
:101FF00002216846FFF728FF082168460170822108
:10200000417027218170B620FFF782FE03216846C8
:10201000FFF71AFF002168460170F220FFF778FEF3
:1020200001216846FFF710FF012168460170262054
:10203000FFF76EFE01216846FFF706FF0F21684695
:102040000170312141702B2181700C21C1700E2152
:102050000171082141714E218171F121C171372136
:10206000017207214172102181720321C1720E2178
:1020700001730921417300218173E020FFF748FEBD
:102080000F216846FFF7E0FE0021684601700E212F
:102090004170142181700321C17011210171072148
:1020A000417131218171C121C17148210172082121
:1020B00041720F2181720C21C172312101733621CD
:1020C00041730F218173E120FFF722FE0F21684643
:1020D000FFF7BAFE1120FFF71BFE9620FEF712FE57
:1020E0004821684601702920FFF712FE0121684649
:1020F000FFF7AAFE0348048003480580FFF7D2FDDE
:102100007FBD0000280000202A00002010B54021DB
:102110000548FEF74AFB0520FEF7F4FD4021024882
:10212000FEF747FB10BD00000008005030B47446B5
:10213000641E2578641CAB4204D3635D5B00E31826
:1021400030BC18471D46F8E7002809DB00BF00BF78
:10215000C206D20E01219140024A116000BF00BFA9
:102160007047000000E100E010B5002819DB1A4AB2
:1021700003231B02D21883089B00D2588307DC0E6E
:10218000FF23A3409A438B071B0E8407E40EA34052
:102190001A43114B032424021B198408A4001A516A
:1021A00018E00E4A03071B0F083B9B089B00D25800
:1021B0008307DC0EFF23A3409A438B071B0E840783
:1021C000E40EA3401A43054B0407240F083CA4085F
:1021D000A4001A5110BD000000E100E01CED00E079
:1021E00010B5002819DB1A4A03231B02D2188308F2
:1021F0009B00D2588307DC0EFF23A3409A438B0732
:102200001B0E8407E40EA3401A43114B032424023F
:102210001B198408A4001A5118E00E4A03071B0F6B
:10222000083B9B089B00D2588307DC0EFF23A3408A
:102230009A438B071B0E8407E40EA3401A43054BF9
:102240000407240F083CA408A4001A5110BD000084
:1022500000E100E01CED00E002E008C8121F08C128
:10226000002AFAD170477047002001E001C1121F17
:10227000002AFBD17047000090B000200E900F9014
:102280000C900D900A900B90089009900A216846D6
:10229000017402A841728172C1726846017502A878
:1022A00041738173C1736846017602A841748174D9
:1022B000C1746846017702A841758175C175012016
:1022C000FE4909680143FD4A116011460968014051
:1022D000019100BF00BF0007F8494039C96B0143B5
:1022E000F64A403AD1631146C96B0140019100BFE3
:1022F00000BF8014F24909680143F14A116000BF30
:10230000FFF722FB0020EF490860FEF7AFFDFEF764
:1023100013FDFEF78FFEFFF7CBF8FFF7F5F8FFF799
:102320001FF8FEF7D9FFFEF719FF00BF0120800755
:102330000068012108438907086000BFE248FEF7F2
:10234000A1FAE248FEF79EFAFEF714FDFFF7D8FC6B
:10235000FFF7DCFEFF214131F020FFF79FFD002059
:10236000FFF78CFC0120FFF72FFDD948FFF726FD72
:102370001020D849886100BF14220121D648FEF7F9
:102380001DF813220221D448FEF718F80121D24883
:10239000FDF7CCFF0221D048FDF7C8FF7B20CF49D5
:1023A000488088803F20400146235F2241210090E1
:1023B0005A20FFF755FB3F2040014623EF224121E1
:1023C0000090EA20FFF74CFB3F20400173235F227F
:1023D0006E2100905A20FFF743FB3F2040017323FA
:1023E000EF226E210090EA20FFF73AFB21E2012163
:1023F000B948FDF77FFF0221B748FDF77BFF0120B9
:102400000003B449886200BF14220121B248FDF7DD
:10241000D5FF13220221B048FDF7D0FF0121AE48BD
:10242000FDF784FF0221AC48FDF780FF0120800703
:10243000406AAA49488001208007406AC003000C16
:10244000888001208007406A488001208007406A18
:1024500040080A30C88068460089498888426FD0A1
:1024600000259E4844880A212046FDF755FE68460F
:1024700001870A212046FDF74FFE84B20A2120463B
:10248000FDF74AFE684641870A212046FDF744FED3
:1024900084B20A212046FDF73FFE684681870A2163
:1024A0002046FDF739FE84B26846C487C18F02A872
:1024B000C07A814206D06846C08FC2B2142119206A
:1024C00000F0BAF96846818F02A8807A814206D06E
:1024D0006846808FC2B21421392000F0ADF96846F9
:1024E000418F02A8407A814206D06846408FC2B22E
:1024F0001421642000F0A0F96846018F007C81421D
:1025000006D06846008FC2B21421842000F094F9EE
:102510006846008FC1B268460174408FC1B202A8FC
:1025200041726846808FC1B202A881726846C08F2E
:10253000C1B202A8C172694841886846418100BFA2
:102540006846408965498988884270D0002563487B
:1025500084880A212046FDF7DFFD684601860A21AE
:102560002046FDF7D9FD84B20A212046FDF7D4FDAF
:10257000684641860A212046FDF7CEFD84B20A2135
:102580002046FDF7C9FD684681860A212046FDF7F1
:10259000C3FD84B26846C486C18E02A8C07B814256
:1025A00006D06846C08EC2B21421AA2000F044F9B9
:1025B0006846818E02A8807B814206D06846808E64
:1025C000C2B21421CA2000F037F96846418E02A831
:1025D000407B814206D06846408EC2B21421F02072
:1025E00000F02AF96846018E007D814207D06846D6
:1025F000008EC2B21421FF20113000F01DF9684690
:10260000008EC1B268460175408EC1B202A8417306
:102610006846808EC1B202A881736846C08EC1B27E
:1026200002A8C1732D4881886846418100BF684671
:1026300080892A49C98888427ED000252748C488D5
:102640000A212046FDF768FD684601850A212046DB
:10265000FDF762FD84B20A212046FDF75DFD684664
:1026600041850A212046FDF757FD84B20A21204604
:10267000FDF752FD684681850A212046FDF74CFD95
:1026800084B26846C485C18D02A8C07C814206D050
:102690006846C08DC2B24621192000F0CDF86846C8
:1026A000818D02A8807C814206D06846808DC2B2AE
:1026B0004621392000F0C0F8684611E04010024081
:1026C0000000014080E200E000300140003800409E
:1026D000380000200004005000000240AC00002040
:1026E000418D02A8407C814206D06846408DC2B22E
:1026F0004621642000F0A0F86846018D007E8142EA
:1027000006D06846008DC2B24621842000F094F8BD
:102710006846008DC1B268460176408DC1B202A8FC
:1027200041746846808DC1B202A881746846C08D2C
:10273000C1B202A8C17400E004E03E48C188684606
:10274000818100BF6846C0893A490989884270D0B2
:102750000025384804890A212046FDF7DDFC68463B
:1027600001850A212046FDF7D7FC84B20A212046C4
:10277000FDF7D2FC684641850A212046FDF7CCFCD6
:1027800084B20A212046FDF7C7FC684681840A21ED
:102790002046FDF7C1FC84B26846C484C18D02A8FE
:1027A000C07D814206D06846C08DC2B24621AA20B3
:1027B00000F042F86846818D02A8807D814206D0F3
:1027C0006846808DC2B24621CA2000F035F86846BE
:1027D000418D02A8407D814206D06846408DC2B23C
:1027E0004621F02000F028F86846018D007F8142E4
:1027F00007D06846008DC2B24621FF20113000F09C
:102800001BF86846008CC1B268460177408CC1B2A3
:1028100002A841756846808CC1B202A881756846DD
:10282000C08CC1B202A8C175024801896846818185
:1028300000BFDCE5AC000020F7B584B007460024FB
:102840000020029000BFB54800880128FBD100207D
:10285000B249088006980300FFF768FC0A06080BD7
:102860000E1114171A1D2023C0261AE0FF268136E8
:1028700017E00926B60114E00326360211E00F2600
:10288000B6010EE00926F6010BE01526B60108E0B8
:102890000326760205E01B26B60102E00F26F601AC
:1028A00000BF00BF0398B42802D11F20029007E0A8
:1028B0000398872802D11720029001E00F20029090
:1028C00097480088002879D1012095490880002088
:1028D0007FE09449096832188D5C802129400029E5
:1028E00004D01F216200904B995203E00021620046
:1028F0008D4B995240212940002905D01F22611C8F
:102900004900894B5A5204E00022611C4900864B61
:102910005A5220212940002905D01F22A11C49001C
:10292000814B5A5204E00022A11C49007E4B5A52AE
:1029300010212940002905D01F22E11C49007A4BB3
:102940005A5204E00022E11C4900774B5A520821F8
:102950002940002905D01F22211D4900724B5A52DF
:1029600004E00022211D49006F4B5A5204212940E6
:10297000002905D01F22611D49006B4B5A5204E00B
:102980000022611D4900684B5A520221294000294A
:1029900005D01F22A11D4900634B5A5204E00022BA
:1029A000A11D4900604B5A52E907C90F002906D002
:1029B0001F22E11D49005C4B5A5205E019E000223C
:1029C000E11D4900584B5A52214608318CB2411C36
:1029D00088B2C02800DA7CE75348009005982F3071
:1029E00083B238461F3082B238460599FFF79CF80B
:1029F00092E000207EE04B49096832188D5C80210E
:102A00002940002904D01F216200484B995203E05D
:102A100000216200454B995240212940002905D0F0
:102A20001F22611C4900414B5A5204E00022611CE4
:102A300049003E4B5A5220212940002905D01F222F
:102A4000A11C4900394B5A5204E00022A11C490044
:102A5000364B5A5210212940002905D01F22E11C73
:102A60004900324B5A5204E00022E11C49002F4B2E
:102A70005A5208212940002905D01F22211D490052
:102A80002A4B5A5204E00022211D4900274B5A527A
:102A900004212940002905D01F22611D4900234B34
:102AA0005A5204E00022611D4900204B5A52022173
:102AB0002940002905D01F22A11D49001B4B5A5255
:102AC00004E00022A11D4900184B5A52E907C90F22
:102AD000002905D01F22E11D4900144B5A5204E081
:102AE0000022E11D4900114B5A52214608318CB297
:102AF000411C88B2C02800DA7DE70C480090059898
:102B00002F3083B238461F3082B238460599FFF71E
:102B10000BF800200249088007B0F0BDA400002097
:102B20003400002038000020D4000020D40C002005
:102B3000081C3044586C80000000000404043C3C35
:102B4000000008000000080008000008000000085D
:102B5000000000020406080A0C101400010203041D
:102B60000506080A00000000000000000000000048
:102B70000000000000000000000000000000000055
:102B80000000000000000000000000000000000045
:102B90000000000000000000000000000000000035
:102BA0000000000000000000000000000000000025
:102BB0000000038000038000038000038000038086
:102BC00000038000038000038000038000010000F8
:102BD00001000000000000000003800003800000EE
:102BE00000000000000000000000000000000000E5
:102BF000000000000000000000000000000E700057
:102C00000E70000E70000420000420000420000458
:102C10002000000000000000000000000000000094
:102C200000000000000000000000000000000000A4
:102C30000000000000000000000000000000000094
:102C40000000066000066000066000066000066086
:102C5000003FF8003FF8000660000CC0003FF8009D
:102C60003FF8000CC0000CC0000CC0000CC0000CF1
:102C7000C000000000000000000000000000000094
:102C80000000000000000001800001800007B0008B
:102C90000FF0001870001870001C00000F80000773
:102CA000E00000F0001830001C30001C70001FE035
:102CB000001BC00001800001800001800001800035
:102CC0000000000000000000000000000000000004
:102CD00000000780000FC0001CE0001860001860B2
:102CE000001CE0000FF80007E0001FF000073800AC
:102CF00006180006180007380003F00001E0000085
:102D000000000000000000000000000000000000C3
:102D100000000000000000000000000000000000B3
:102D200003F00007F0000C60000C00000C0000062F
:102D300000000700000F9C001DFC0018F000187038
:102D4000000FFC0007DC0000000000000000000095
:102D50000000000000000000000000000000000073
:102D600000000000000380000380000380000100D9
:102D70000001000001000001000000000000000050
:102D80000000000000000000000000000000000043
:102D90000000000000000000000000000000000033
:102DA00000000000000000000000001800003800D3
:102DB00000700000F00000E00000E00001C0000131
:102DC000C00001C00001C00001C00001C00000E05F
:102DD0000000E000007000007000003800001800E3
:102DE00000000000000000000000000000000000E3
:102DF00000001800001C00000E00000E000007007C
:102E000000070000038000038000038000038000AF
:102E10000380000380000700000700000F00000E81
:102E200000001C000018000000000000000000006E
:102E30000000000000000000000001800001800090
:102E40000180001DB8001FF80007E00003C0000368
:102E5000C0000660000660000000000000000000E6
:102E60000000000000000000000000000000000062
:102E70000000000000000000000000000000000052
:102E800000000000000000000180000180000180BF
:102E9000000180000180003FFC003FFC0001800039
:102EA000018000018000018000018000000000001E
:102EB0000000000000000000000000000000000012
:102EC0000000000000000000000000000000000002
:102ED00000000000000000000000000000000000F2
:102EE000000000000000000000000000000000E002
:102EF0000000C00001C0000180000180000300004C
:102F000003000000000000000000000000000000BE
:102F100000000000000000000000000000000000B1
:102F2000000000000000001FF8001FF80000000073
:102F30000000000000000000000000000000000091
:102F40000000000000000000000000000000000081
:102F50000000000000000000000000000000000071
:102F60000000000000000000000000000000000061
:102F7000000000000000000000000000000003C08E
:102F80000003C00003C000000000000000000000BB
:102F90000000000000000000000000000018000019
:102FA0001800003800003000007000006000006071
:102FB0000000C00000C0000180000180000300008C
:102FC0000300000600000600000E00000C00001CBC
:102FD00000001800001800000000000000000000C1
:102FE0000000000000000000000003C00007E00037
:102FF0000C30000C300018180018180018180018B1
:1030000018001818001818001818000C30000C30A0
:103010000007E00003C00000000000000000000006
:1030200000000000000000000000000000000000A0
:1030300000000080000780001F80001D80000180CC
:1030400000018000018000018000018000018000FB
:103050000180000180000180001FF8001FF80000BF
:103060000000000000000000000000000000000060
:103070000000000000000000000007C0001FF0007A
:103080003830003018003018000018000030000000
:10309000600001C0000380000600000C0000180062
:1030A000003FF8003FF800000000000000000000B2
:1030B0000000000000000000000000000000000010
:1030C000000003C0000FE0000C7000003000003072
:1030D0000000600003C00003E00000700000180062
:1030E0000018000018001838001FF0000FC0000082
:1030F00000000000000000000000000000000000D0
:103100000000000000000000000000E00001E000FE
:1031100001E0000360000660000660000C60000C27
:1031200060001860003060003FF8003FF800006069
:103130000003F80003F80000000000000000000099
:10314000000000000000000000000000000000007F
:1031500000001FF0001FF000180000180000180009
:10316000001BC0001FF0001C3000001800001800F9
:103170000018000018003030003FF0000FC00000C1
:10318000000000000000000000000000000000003F
:103190000000000000000000000000F80003F8003C
:1031A0000700000E00000C00001800001BC0001FEC
:1031B000F0001C30001818001818001818000C38FF
:1031C000000FF00003E0000000000000000000001D
:1031D00000000000000000000000000000000000EF
:1031E00000001FF8001FF800181800183800003001
:1031F0000000300000700000600000600000E0008F
:1032000000C00000C00001C000018000018000007B
:1032100000000000000000000000000000000000AE
:103220000000000000000000000007E0000FF000B8
:103230001C38001818001818000C300007E00007B0
:10324000E0000C30001818001818001818001C387E
:10325000000FF00007E00000000000000000000088
:10326000000000000000000000000000000000005E
:10327000000007C0000FF0001C30001818001818DC
:10328000001818000C38000FF80003D800001800D0
:1032900000300000700000E0001FC0001F000000B0
:1032A000000000000000000000000000000000001E
:1032B000000000000000000000000000000000000E
:1032C00000000000000003C00003C00003C00000B5
:1032D000000000000000000000000000000003C02B
:1032E0000003C00003C00000000000000000000058
:1032F00000000000000000000000000000000000CE
:10330000000000000000000000000000000000F0CD
:103310000000F00000F000000000000000000000CD
:1033200000000000E00001C00001800001800003F7
:10333000000002000000000000000000000000008B
:10334000000000000000000000000000000000007D
:10335000001C00003C0000F00003C0000F00003C17
:103360000000F000003C00000F000003C00000F06F
:1033700000003C00001C00000000000000000000F5
:10338000000000000000000000000000000000003D
:10339000000000000000000000000000000000002D
:1033A000007FFC007FFC000000000000007FFC00AC
:1033B0007FFC000000000000000000000000000092
:1033C00000000000000000000000000000000000FD
:1033D00000000000000000000000000000000000ED
:1033E0007000007800001E000007800001E000006F
:1033F0007800001E0000780001E0000780001E0039
:1034000000780000700000000000000000000000D4
:1034100000000000000000000000000000000000AC
:10342000000000000007C0000FE000187000183016
:103430000018300000700000E00003C000038000AE
:10344000030000000000000000070000070000006B
:10345000000000000000000000000000000000006C
:103460000000000000000000000003E00007F00082
:103470000E38000C180018780018F80019D8001938
:10348000980019980019980018F80018780018008A
:10349000000C00000E180007F80003E00000000018
:1034A000000000000000000000000000000000001C
:1034B00000000000001F80001FC00001C00003606A
:1034C000000360000630000630000C30000FF800EA
:1034D0001FF800180C00300C00FC7F00FC7F00007F
:1034E00000000000000000000000000000000000DC
:1034F000000000000000000000000000007FE0006D
:103500007FF0001838001818001818001838001F2D
:10351000F0001FF800181C00180C00180C00180C04
:10352000007FF8007FF000000000000000000000B5
:10353000000000000000000000000000000000008B
:10354000000000000003EC000FFC001C1C00180C25
:1035500000300C003000003000003000003000006F
:10356000300000180C001C1C000FF80003F00000D5
:10357000000000000000000000000000000000004B
:10358000000000000000000000000000007FC000FC
:103590007FF000183800181800180C00180C0018DC
:1035A0000C00180C00180C00180C00181800183823
:1035B000007FF0007FE0000000000000000000003D
:1035C00000000000000000000000000000000000FB
:1035D00000000000007FF8007FF80018180018189D
:1035E000001998001980001F80001F8000198000BA
:1035F0001998001818001818007FF8007FF80000CC
:1036000000000000000000000000000000000000BA
:10361000000000000000000000000000003FFC006F
:103620003FFC000C0C000C0C000CCC000CC0000F7C
:10363000C0000FC0000CC0000CC0000C00000C004B
:10364000003FC0003FC0000000000000000000007C
:10365000000000000000000000000000000000006A
:10366000000000000003EC000FFC001C1C00180C04
:1036700000300C0030000030000030FE0030FE0052
:10368000300C00380C001C1C000FFC0003F0000084
:10369000000000000000000000000000000000002A
:1036A000000000000000000000000000007E7E001E
:1036B0007E7E001818001818001818001818001F2F
:1036C000F8001FF80018180018180018180018182B
:1036D000007E7E007E7E00000000000000000000F2
:1036E00000000000000000000000000000000000DA
:1036F00000000000001FF8001FF80001800001809A
:103700000001800001800001800001800001800034
:103710000180000180000180001FF8001FF80000F8
:103720000000000000000000000000000000000099
:103730000000000000000000000000000007FE0084
:1037400007FE0000300000300000300000300000B4
:103750003000303000303000303000303000306029
:10376000003FE0000F8000000000000000000000AB
:103770000000000000000000000000000000000049
:1037800000000000007F3E007F3E001830001860FF
:103790000018C0001980001B80001FC0001CE00042
:1037A0001870001830001838007F1F007F1F0000BD
:1037B0000000000000000000000000000000000009
:1037C000000000000000000000000000007F8000FA
:1037D0007F80000C00000C00000C00000C00000CAE
:1037E00000000C00000C0C000C0C000C0C000C0C6D
:1037F000007FFC007FFC00000000000000000000D3
:1038000000000000000000000000000000000000B8
:103810000000000000F00F00F81F00381C003C3CC6
:10382000003C3C00366C00366C0033CC0033CC00DE
:10383000318C00300C00300C00FE7F00FE7F000059
:103840000000000000000000000000000000000078
:103850000000000000000000000000000078FE00F2
:1038600078FE001C18001E18001F18001B18001BF3
:10387000980019D80018D80018F8001878001838DF
:10388000007F18007F18000000000000000000000A
:103890000000000000000000000000000000000028
:1038A000000000000003C0000FF0001C38001818D2
:1038B00000381C00300C00300C00300C00300C00C4
:1038C000381C001818001C38000FF00003C000005E
:1038D00000000000000000000000000000000000E8
:1038E000000000000000000000000000003FF000A9
:1038F0003FF8000C1C000C0C000C0C000C0C000C15
:1039000018000FF8000FE0000C00000C00000C0085
:10391000003FC0003FC000000000000000000000A9
:103920000000000000000000000000000000000097
:10393000000000000003C0000FF0001C3800181841
:1039400000381C00300C00300C00300C00300C0033
:10395000381C001818001C38000FF00007C00007C2
:10396000CC000FFC000C380000000000000000003C
:10397000000000000000000000000000007FE000E8
:103980007FF0001838001818001818001838001FA9
:10399000F0001FC00018E000187000183000183840
:1039A000007F1E007F0E00000000000000000000ED
:1039B0000000000000000000000000000000000007
:1039C000000000000007D8000FF8001C380018188D
:1039D000001818001E00000FC00003F0000078005F
:1039E0001818001818001C38001FF0001BE0000019
:1039F00000000000000000000000000000000000C7
:103A0000000000000000000000000000003FFC007B
:103A10003FFC00318C00318C00318C00318C000176
:103A20008000018000018000018000018000018091
:103A3000000FF0000FF00000000000000000000088
:103A40000000000000000000000000000000000076
:103A500000000000007E7E007E7E0018180018180E
:103A60000018180018180018180018180018180066
:103A70001818001818000C30000FF00003C00000E8
:103A80000000000000000000000000000000000036
:103A9000000000000000000000000000007F7F0028
:103AA0007F7F00180C000C18000C18000C18000682
:103AB000300006300003600003600003600001C0B6
:103AC0000001C000008000000000000000000000B5
:103AD00000000000000000000000000000000000E6
:103AE0000000000000FE3F80FE3F803006003006F0
:103AF0000030860019CC0019CC001B6C001B6C0038
:103B00001E7C000E38000E38000C18000C18000047
:103B100000000000000000000000000000000000A5
:103B2000000000000000000000000000007E7E0099
:103B30007E7E001818000C300006600003C00001F3
:103B4000800001800003C0000660000C30001818DF
:103B5000007E7E007E7E000000000000000000006D
:103B60000000000000000000000000000000000055
:103B700000000000007C7E007C7E001818000C30E5
:103B80000006600006600003C000018000018000A4
:103B90000180000180000180000FF0000FF00000A4
:103BA0000000000000000000000000000000000015
:103BB000000000000000000000000000001FF800EE
:103BC0001FF80018180018300018600018C0000115
:103BD00080000300000618000C18001818003018A8
:103BE000003FF8003FF80000000000000000000067
:103BF00000000000000000000000000000000000C5
:103C0000000001F00001F00001800001800001804F
:103C1000000180000180000180000180000180001F
:103C2000018000018000018000018000018000010E
:103C3000800001F00001F000000000000000000022
:103C4000000000001800001800001C00000C00001C
:103C50000E00000600000600000300000300000143
:103C6000800001800000C00000C000006000006013
:103C7000000070000030000038000018000018003C
:103C80000000000000000000000000000000000034
:103C900000000F80000F8000018000018000018083
:103CA000000180000180000180000180000180008F
:103CB000018000018000018000018000018000017E
:103CC00080000F80000F8000000000000000000056
:103CD0000000000000000000800001C00003E000C0
:103CE0000770000630000C1800180C0010040000CB
:103CF00000000000000000000000000000000000C4
:103D000000000000000000000000000000000000B3
:103D100000000000000000000000000000000000A3
:103D20000000000000000000000000000000000093
:103D30000000000000000000000000000000000083
:103D40000000000000000000000000000000000073
:103D50000000000000000000000000000000FFFF65
:103D600000FFFF0000000003000003800000E000EF
:103D700000600000000000000000000000000000E3
:103D80000000000000000000000000000000000033
:103D90000000000000000000000000000000000023
:103DA0000000000000000000000000000000000013
:103DB00000000000000000000000000000000FC034
:103DC000001FE00000300000300007F0001FF0008E
:103DD0003830003030003070001FFC000FBC000095
:103DE00000000000000000000000000000000000D3
:103DF00000000000000000000000780000780000D3
:103E00001800001800001BE0001FF8001C18001824
:103E10000C00180C00180C00180C00180C001C18D2
:103E2000007FF8007BE000000000000000000000C0
:103E30000000000000000000000000000000000082
:103E4000000000000000000000000000000003EC83
:103E5000000FFC001C1C00380C00300C003000006F
:103E6000300000380C001C1C000FF80003F00000AC
:103E70000000000000000000000000000000000042
:103E80000000000000000000000000780000780042
:103E900000180000180007D8001FF800183800307C
:103EA000180030180030180030180030180018388A
:103EB000001FFE0007DE0000000000000000000000
:103EC00000000000000000000000000000000000F2
:103ED000000000000000000000000000000007E0FB
:103EE000001FF800181800300C003FFC003FFC00D9
:103EF000300000300000180C001FFC0007F000002C
:103F000000000000000000000000000000000000B1
:103F10000000000000000000000001FC0003FC00A5
:103F20000600000600003FF8003FF800060000060B
:103F30000000060000060000060000060000060063
:103F4000003FF0003FF00000000000000000000013
:103F50000000000000000000000000000000000061
:103F6000000000000000000000000000000007DE6C
:103F7000001FFE00183800301800301800301800FC
:103F80003018003018001838001FF80007D800005B
:103F900018000018000038000FF0000FC0000000EB
:103FA0000000000000000000000078000078000021
:103FB0001800001800001BE0001FF0001C3800185B
:103FC00018001818001818001818001818001818E9
:103FD000007E7E007E7E00000000000000000000E9
:103FE00000000000000000000000000000000000D1
:103FF00000000180000180000000000000001F8020
:10400000001F80000180000180000180000180000D
:104010000180000180000180003FFC003FFC0000A7
:104020000000000000000000000000000000000090
:104030000000000000000000000000C00000C00000
:104040000000000000001FF0001FF0000030000022
:104050003000003000003000003000003000003040
:104060000000300000300000300000300000700020
:104070001FE0001F800000000000000000000000A2
:1040800000003C00003C00000C00000C00000CF89C
:10409000000CF8000CC0000D80000F80000F000025
:1040A0000F80000DC0000CE0003C7C003C7C000058
:1040B0000000000000000000000000000000000000
:1040C000000000000000000000001F80001F8000B2
:1040D000018000018000018000018000018000015A
:1040E00080000180000180000180000180000180CB
:1040F000003FFC003FFC000000000000000000004A
:1041000000000000000000000000000000000000AF
:104110000000000000000000000000000000F77830
:1041200000FFFC0039CC00318C00318C00318C0058
:10413000318C00318C00318C00FDEF00FDEF000070
:10414000000000000000000000000000000000006F
:10415000000000000000000000000000000000005F
:104160000000000000007BE0007FF0001C38001819
:104170001800181800181800181800181800181837
:10418000007E7E007E7E0000000000000000000037
:10419000000000000000000000000000000000001F
:1041A000000000000000000000000000000003C04C
:1041B000000FF0001C3800381C00300C00300C00E0
:1041C000300C00381C001C38000FF00003C0000049
:1041D00000000000000000000000000000000000DF
:1041E00000000000000000000000000000000000CF
:1041F0000000000000007BE0007FF8001C180018A1
:104200000C00180C00180C00180C00180C001C18DE
:10421000001FF8001BE00018000018000018000044
:104220007F00007F00000000000000000000000090
:10423000000000000000000000000000000007DE99
:10424000001FFE0018380030180030180030180029
:104250003018003018001838001FF80007D8000088
:10426000180000180000180000FE0000FE0000000A
:10427000000000000000000000000000000000003E
:104280000000000000003E78003EFC0007CC000764
:104290000000060000060000060000060000060000
:1042A000003FF0003FF000000000000000000000B0
:1042B00000000000000000000000000000000000FE
:1042C000000000000000000000000000000007F8EF
:1042D000000FF8001818001818001F80000FF000D9
:1042E00000F8001818001838001FF0001FE0000048
:1042F00000000000000000000000000000000000BE
:10430000000000000000000000000C00000C000095
:104310000C00000C00003FF0003FF0000C00000C0F
:1043200000000C00000C00000C00000C00000C1C35
:104330000007FC0003F00000000000000000000087
:10434000000000000000000000000000000000006D
:10435000000000000000000000000000000078786D
:10436000007878001818001818001818001818009D
:104370001818001818001838000FFE0007DE00009B
:10438000000000000000000000000000000000002D
:10439000000000000000000000000000000000001D
:1043A0000000000000007C3E007C3E001818001851
:1043B00018000C30000C300006600006600007E0BA
:1043C0000003C00003C00000000000000000000067
:1043D00000000000000000000000000000000000DD
:1043E0000000000000000000000000000000783C19
:1043F00000783C003118003398003398001AB00060
:104400001EF0001EF0001C60000C60000C6000003C
:10441000000000000000000000000000000000009C
:10442000000000000000000000000000000000008C
:104430000000000000003E7C003E7C000C300006C6
:10444000600003C00001800003C0000660000C3063
:10445000003E7C003E7C00000000000000000000E8
:10446000000000000000000000000000000000004C
:1044700000000000000000000000000000007E1F9F
:10448000007E1F00180C000C18000C1800063000ED
:1044900006300003600003E00001C00000C000011E
:1044A00080000180000300003FC0003FC00000000A
:1044B00000000000000000000000000000000000FC
:1044C0000000000000001FF8001FF800183000185E
:1044D000600000C0000180000300000618000C18F6
:1044E000001FF8001FF8000000000000000000009E
:1044F00000000000000000000000000000000000BC
:10450000000000E00001E000018000018000018067
:10451000000180000180000180000380000700008E
:104520000380000180000180000180000180000103
:10453000800001E00000E00000000000000000003A
:104540000000000000000000000001800001800069
:1045500001800001800001800001800001800001D5
:104560008000018000018000018000018000018046
:1045700000018000018000018000018000018000B6
:10458000000000000000000000000000000000002B
:10459000000007000007800001800001800001800A
:1045A0000001800001800001800001C00000E000E7
:1045B00001C0000180000180000180000180000135
:1045C00080000780000700000000000000000000DD
:1045D00000000000000000000000000000000000DB
:1045E0000000000000000000000000000E00001F9E
:1045F00018003BB80031F00000E0000000000000AF
:1046000000000000000000000000000000000000AA
:10461000000000000000000000000000000000009A
:10462000000000000000000000000000000000008A
:10463000000000000000000000000000000000007A
:104640000000000000000700070007000700070047
:10465000070007000200020000000000070007003A
:10466000000000000000000000000000000000004A
:104670001CE01CE01CE0084008400840000000006E
:10468000000000000000000000000000000000002A
:10469000000000000CC00CC00CC00CC00CC03FF0EF
:1046A0003FF00CC00CC03FF03FF00CC00CC00CC081
:1046B0000CC00CC00000000000000000030003005C
:1046C00007E00FE0186018001F000FC000E018603E
:1046D00018601FC01F8003000300030000000000DB
:1046E0000000000000001C002200220022001C60CC
:1046F00001E00F803C0031C002200220022001C0F6
:1047000000000000000000000000000000000000A9
:10471000000003E00FE00C000C0006000F301FF05B
:1047200019E018C01FF007B00000000000000000F2
:1047300000000000000000000380038003800100EF
:104740000100010000000000000000000000000067
:10475000000000000000000000000000000000C099
:1047600000C00180018001800300030003000300FA
:104770000300030001800180018000C000C0000030
:104780000000000000000C000C00060006000600FF
:1047900003000300030003000300030006000600FB
:1047A00006000C000C0000000000000000000300E8
:1047B000030003001B601FE0078007800FC00CC0D0
:1047C00000000000000000000000000000000000E9
:1047D00000000000000000000000030003000300D0
:1047E00003003FF03FF0030003000300030000005C
:1047F00000000000000000000000000000000000B9
:1048000000000000000000000000000000000000A8
:1048100000000380030003000600060004000000FF
:104820000000000000000000000000000000000088
:1048300000003FE03FE0000000000000000000003A
:104840000000000000000000000000000000000068
:104850000000000000000000000000000000000058
:1048600000000380038003800000000000000000BF
:10487000000000000060006000C000C000C00180B7
:10488000018003000300060006000C000C000C0071
:1048900018001800000000000000000000000F8059
:1048A0001FC018C0306030603060306030603060F1
:1048B000306018C01FC00F80000000000000000022
:1048C00000000000000003001F001F0003000300A1
:1048D0000300030003000300030003001FE01FE0C8
:1048E00000000000000000000000000000000F8039
:1048F0001FC038E03060006000C001800300060087
:104900000C0018003FE03FE0000000000000000045
:104910000000000000000F803FC030E0006000E0B9
:1049200007C007C000E00060006060E07FC03F801B
:10493000000000000000000000000000000001C0B6
:1049400003C003C006C00CC00CC018C030C03FE09C
:104950003FE000C003E003E00000000000000000B2
:104960000000000000001FC01FC0180018001F80BA
:104970001FC018E000600060006030E03FC01F8092
:10498000000000000000000000000000000003E044
:104990000FE01E001800380037803FC038E030605C
:1049A000306018E01FC00780000000000000000019
:1049B0000000000000003FE03FE03060006000C009
:1049C00000C000C0018001800180030003000300DB
:1049D00000000000000000000000000000000F8048
:1049E0001FC038E0306038E01FC01FC038E03060C2
:1049F000306038E01FC00F800000000000000000A1
:104A00000000000000000F001FC038C030603060A0
:104A100038E01FE00F6000E000C003C03F803E00B0
:104A20000000000000000000000000000000000086
:104A300000000000000003800380038000000000ED
:104A400000000380038003800000000000000000DD
:104A5000000000000000000000000000000001C095
:104A600001C001C000000000000003800300060038
:104A7000060004000000000000000000000000002C
:104A80000000003000F003C007001C0078001C008C
:104A9000070003C000F0003000000000000000002C
:104AA00000000000000000000000000000007FF097
:104AB0007FF0000000007FF07FF0000000000000A9
:104AC00000000000000000000000000000000000E6
:104AD000000030003C000F00038000E0007800E0A0
:104AE00003800F003C0030000000000000000000C8
:104AF00000000000000000000F801FC01860186058
:104B0000006001C0038003000000000007000700F0
:104B10000000000000000000000000000000038012
:104B20000C8008401040104011C01240124012404A
:104B300011C01000080008400780000000000000BD
:104B400000000000000000001F801F80038006C0DE
:104B500006C00CC00C601FE01FE030307878787819
:104B60000000000000000000000000000000000045
:104B70003F803FC01860186018E01FC01FE0187029
:104B8000183018303FF03FE0000000000000000047
:104B9000000000000000000007B00FF01C7038306B
:104BA000300030003000300038301C700FE007C09B
:104BB00000000000000000000000000000000000F5
:104BC0007F807FC030E03070303030303030303077
:104BD000307030E07FC07F800000000000000000E7
:104BE00000000000000000003FF03FF018301830D7
:104BF00019801F801F801980183018303FF03FF057
:104C000000000000000000000000000000000000A4
:104C10003FF03FF01830183019801F801F80198036
:104C2000180018003F003F000000000000000000D6
:104C3000000000000000000007B01FF018703030C6
:104C40003000300031F831F8303018301FF007C034
:104C50000000000000000000000000000000000054
:104C60003CF03CF01860186018601FE01FE018600E
:104C7000186018603CF03CF00000000000000000EC
:104C800000000000000000001FE01FE00300030020
:104C90000300030003000300030003001FE01FE004
:104CA0000000000000000000000000000000000004
:104CB00003F803F80060006000600060306030605E
:104CC000306030E03FC00F800000000000000000B6
:104CD00000000000000000003EF83EF818E01980D7
:104CE0001B001F001D8018C018C018603E783E3899
:104CF00000000000000000000000000000000000B4
:104D00003F003F000C000C000C000C000C000C30AD
:104D10000C300C303FF03FF00000000000000000BD
:104D200000000000000000007878787838703CF0CF
:104D300034B037B037B03330333030307CF87CF8B3
:104D40000000000000000000000000000000000063
:104D500039F03DF01C601E601E601B601B6019E096
:104D600019E018E03EE03E60000000000000000096
:104D7000000000000000000007800FC01CE0387039
:104D8000303030303030303038701CE00FC00780A9
:104D90000000000000000000000000000000000013
:104DA0003FC03FE018701830183018701FE01FC067
:104DB000180018003F003F00000000000000000045
:104DC000000000000000000007800FC01CE03870E9
:104DD000303030303030303038701CE00FC0078059
:104DE00007B00FF00CE00000000000000000000021
:104DF0003FC03FE01870183018701FE01FC018E067
:104E0000186018703E383E180000000000000000D6
:104E100000000000000000000FB01FF038703030BC
:104E200038001F8007E00070303038703FE037C036
:104E30000000000000000000000000000000000072
:104E40003FF03FF0333033303330030003000300D2
:104E5000030003000FC00FC00000000000000000AE
:104E600000000000000000003CF03CF018601860FA
:104E7000186018601860186018601CE00FC0078088
:104E80000000000000000000000000000000000022
:104E900078F078F03060306018C018C00D800D8058
:104EA0000D80070007000700000000000000000060
:104EB00000000000000000007C7C7C7C30183398EF
:104EC0003398339836D816D01C701C701C7018306C
:104ED00000000000000000000000000000000000D2
:104EE00078F078F0306018C00D80070007000D8062
:104EF00018C0306078F078F000000000000000007A
:104F000000000000000000003CF03CF018600CC005
:104F10000780078003000300030003000FC00FC0D9
:104F20000000000000000000000000000000000081
:104F30001FE01FE0186018C0018003000300060096
:104F40000C6018601FE01FE000000000000000007F
:104F500000000000000003C003C0030003000300C2
:104F60000300030003000300030003000300030029
:104F7000030003C003C00000000000001800180078
:104F80000C000C000C00060006000300030001806A
:104F9000018000C000C000C0006000600000000090
:104FA0000000000000000F000F00030003000300DA
:104FB00003000300030003000300030003000300D9
:104FC00003000F000F0000000000000000000200BE
:104FD00007000D8018C03060202000000000000095
:104FE00000000000000000000000000000000000C1
:104FF00000000000000000000000000000000000B1
:1050000000000000000000000000000000000000A0
:105010000000000000000000FFFCFFFC0000040096
:1050200003000080000000000000000000000000FD
:105030000000000000000000000000000000000070
:1050400000000000000000000000000000000FC091
:105050001FE000600FE01FE0386030E03FF01F709D
:1050600000000000000000000000000000007000D0
:1050700070003000300037803FE038603030303032
:10508000303038607FE077800000000000000000D2
:10509000000000000000000000000000000007B059
:1050A0001FF0183030303000300038301FF00FC0A3
:1050B0000000000000000000000000000000007080
:1050C00000700030003007B01FF018703030303002
:1050D000303038701FF807B80000000000000000F2
:1050E0000000000000000000000000000000078039
:1050F0001FE018603FF03FF0300018301FF007C08D
:10510000000000000000000000000000000003F0AC
:1051100007F0060006001FE01FE00600060006007C
:10512000060006001FE01FE0000000000000000075
:10513000000000000000000000000000000007B8B0
:105140001FF8187030303030303018701FF007B052
:10515000003000700FE00FC00000000000003800B9
:105160003800180018001BC01FE01C601860186091
:10517000186018603CF03CF00000000000000000E7
:1051800000000000000003000300000000001F00FA
:105190001F00030003000300030003001FE01FE0E3
:1051A00000000000000000000000000000000300FC
:1051B0000300000000001FC01FC000C000C000C0EE
:1051C00000C000C000C000C000C001C03F803F0060
:1051D00000000000000038003800180018001BE034
:1051E0001BE01B001E001E001B00198039F039F067
:1051F00000000000000000000000000000001F0090
:105200001F0003000300030003000300030003006A
:10521000030003001FE01FE000000000000000008A
:1052200000000000000000000000000000007EE020
:105230007FF0333033303330333033307BB87BB8AA
:10524000000000000000000000000000000000005E
:105250000000000000003BC03FE01C6018601860C8
:10526000186018603CF03CF00000000000000000F6
:1052700000000000000000000000000000000780A7
:105280001FE0186030303030303018601FE0078089
:10529000000000000000000000000000000000000E
:1052A00000000000000077807FE038603030303050
:1052B000303038603FE03780300030007C007C00C8
:1052C000000000000000000000000000000007B81F
:1052D0001FF8187030303030303018701FF007B0C1
:1052E0000030003000F800F800000000000000006E
:1052F0000000000000003CE03DF00F300E000C000C
:105300000C000C003FC03FC0000000000000000087
:10531000000000000000000000000000000007E0A6
:105320001FE018601E000FC001E018601FE01F8022
:10533000000000000000000000000000000000006D
:105340000C000C000C003FE03FE00C000C000C00D7
:105350000C000C300FF007C000000000000000003F
:10536000000000000000000000000000000038E025
:1053700038E0186018601860186018E01FF00F70AF
:10538000000000000000000000000000000000001D
:1053900000000000000078F078F0306018C018C0FD
:1053A0000D800D80070007000000000000000000D5
:1053B000000000000000000000000000000078F085
:1053C00078F03260326037E01DC01DC018C018C0D0
:1053D00000000000000000000000000000000000CD
:1053E0000000000000003CF03CF00CC0078003000F
:1053F00007800CC03CF03CF0000000000000000002
:10540000000000000000000000000000000078F034
:1054100078F0306018C018C00D800F8007000600BB
:1054200006000C007F007F0000000000000000006C
:105430000000000000001FE01FE018C00180030012
:1054400006000C601FE01FE00000000000000000EC
:1054500000000000000001C003C0030003000300BF
:105460000300030007000E00070003000300030011
:10547000030003C001C000000000000000000300A2
:105480000300030003000300030003000300030004
:1054900003000300030003000300030003000000F7
:1054A0000000000000001C001E00060006000600B0
:1054B000060006000700038007000600060006003D
:1054C00006001E001C00000000000000000000009C
:1054D00000000000000000000E003F3033F001E04B
:1054E00000000000000000000000000000000000BC
:1054F00000000000000000000000000000000000AC
:10550000000000000000000000000000000000009B
:105510000000000000000C000C000C000C000C004F
:105520000C000C000C0000000C000000000000004B
:1055300000000000000000001DC01DC008800880A1
:1055400008800000000000000000000000000000D3
:105550000000000000000D800D800D800D803FC018
:105560001B003FC01B001B001B001B0000000000B5
:105570000000000004001F803180318038001E00D0
:105580000F000380318031803F00040004000000E0
:1055900000000000000018002400240018C007804C
:1055A0001E00318002400240018000000000000027
:1055B00000000000000000000F0018001800180094
:1055C0000C001D80370033001D800000000000002B
:1055D00000000000000000000700070002000200B9
:1055E00002000000000000000000000000000000B9
:1055F0000000000000000300030006000E000C0085
:105600000C000C000C000E0006000300030000005C
:10561000000000000000180018000C000600060042
:1056200006000600060006000C001C001800000022
:10563000000000000000060006003FC03FC00F0051
:105640001F80198000000000000000000000000022
:10565000000000000000000000000400040004003E
:105660003F8004000400040000000000000000006F
:10567000000000000000000000000000000000002A
:10568000000000000000060004000C0008000800F4
:10569000000000000000000000000000000000000A
:1056A0003F8000000000000000000000000000003B
:1056B00000000000000000000000000000000000EA
:1056C0000000000000000C000C00000000000000C2
:1056D0000000000000C000C0018001800300030042
:1056E00006000C000C00180018003000300000000C
:1056F0000000000000000E001B003180318031806E
:105700003180318031801B000E000000000000005D
:1057100000000000000006003E0006000600060033
:1057200006000600060006003FC000000000000062
:105730000000000000000F0019803180318003005C
:1057400006000C00180030003F8000000000000040
:105750000000000000003F006180018003001F0086
:1057600003800180018061803F0000000000000094
:10577000000000000000070007000F000B001B00E6
:10578000130033003F8003000F8000000000000082
:105790000000000000001F801800180018001F0003
:1057A00011800180018021801F00000000000000A6
:1057B00000000000000007801C00180030003700C7
:1057C00039803180318019800F0000000000000016
:1057D0000000000000007F004300030006000600F8
:1057E000060006000C000C000C0000000000000089
:1057F0000000000000001F003180318031801F0058
:1058000031803180318031801F00000000000000B5
:105810000000000000001E00330031803180338022
:105820001D800180030007003C0000000000000014
:105830000000000000000000000000000C000C0050
:105840000000000000000C000C0000000000000040
:105850000000000000000000000000000300030042
:10586000000000000000060004000800080000001E
:10587000000000000000000000C003000400180049
:10588000600018000400030000C0000000000000D9
:1058900000000000000000000000000000007FC0C9
:1058A00000007FC0000000000000000000000000B9
:1058B0000000000000000000600018000400030069
:1058C00000C0030004001800600000000000000099
:1058D00000000000000000001F00318031800180C6
:1058E00007000C000C0000000C000000000000008D
:1058F0000000000000000E00110021002100270020
:10590000290029002700200011000E0000000000DF
:1059100000000000000000003F000F000900198097
:1059200019801F8030C030C079E000000000000006
:1059300000000000000000007F00318031803180D5
:105940003F003180318031807F0000000000000086
:1059500000000000000000001F4030C060406000F8
:1059600060006000604030801F0000000000000008
:1059700000000000000000007F00318030C030C017
:1059800030C030C030C031807F0000000000000017
:1059900000000000000000007F8030803080320076
:1059A0003E003200308030807F8000000000000028
:1059B00000000000000000007FC030403040320096
:1059C0003E003200300030007C000000000000008B
:1059D00000000000000000001E8031806080600038
:1059E000600067C0618031801F000000000000007F
:1059F00000000000000000007BC031803180318059
:105A00003F803180318031807BC000000000000089
:105A100000000000000000003FC006000600060075
:105A200006000600060006003FC00000000000005F
:105A300000000000000000001FC00300030003007E
:105A400003006300630063003E00000000000000EC
:105A500000000000000000007BC0318033003600F1
:105A60003C003E003300318079C00000000000009F
:105A700000000000000000007E0018001800180060
:105A800018001840184018407FC0000000000000B7
:105A90000000000000000000E0E060C071C07BC0BA
:105AA0006AC06EC064C060C0FBE00000000000007F
:105AB000000000000000000073C0318039803D808C
:105AC000358037803380318079800000000000000D
:105AD00000000000000000001F00318060C060C0B6
