:020000040800F2
:1000000008040020D1000008350A0008610100083A
:1000100000000000000000000000000000000000E0
:10002000000000000000000000000000390B000884
:100030000000000000000000390A00083B0B000827
:10004000E3000008E3000008E3000008E300000804
:10005000E3000008E3000008E3000008E3000008F4
:10006000E3000008E3000008E3000008E3000008E4
:10007000E3000008E3000008E3000008E3000008D4
:10008000E3000008E3000008E3000008E3000008C4
:10009000E3000008E3000008E3000008E3000008B4
:1000A000E3000008E3000008E3000008E3000008A4
:1000B000E3000008E3000008E30000080348854669
:1000C00000F03CF800480047C51000080804002074
:1000D0000448804704480047FEE7FEE7FEE7FEE7E6
:1000E000FEE7FEE7450C0008BD00000830B50B46F2
:1000F000014600202022012409E00D46D5409D4202
:1001000005D31D469540491B254695404019154687
:10011000521E002DF1DC30BDD2B201E00270401C55
:10012000491EFBD270470022F6E710B513460A4677
:1001300004461946FFF7F0FF204610BD064C012586
:10014000064E05E0E36807CC2B430C3C984710347F
:10015000B442F7D3FFF7B6FFEC1100080C12000809
:1001600000BFFEE710B52021014800F08AF810BD5D
:100170000004005008B50549C96B0143034AD16327
:100180001146C96B0140009100BF08BD001002403C
:10019000F0B502460B4600266AE00124B440196817
:1001A0002140002963D05868012802D058680228ED
:1001B00015D1986894680D464D436F00ED19AC4316
:1001C0000D464D4345432C43946000BFD8685468A6
:1001D0008C430D4645432C43546000BF00BF186953
:1001E000D4680D464D436F00ED19AC430D464D43A9
:1001F00045432C43D46000BF5868022829D1FF2909
:1002000011D85869146A0D464D434D434D432F0193
:100210007D1BAC430D464D434D434D4345432C435D
:10022000146200BF15E05F69080A40430C0A60438E
:100230000C0A60430401241A506AA0430C0A644368
:100240000D0A6C430D0A6C437C432043506200BF8F
:1002500000BF586814680D464D436F00ED19AC435C
:100260000D464D4345432C43146000BF00BF761C30
:100270001868F040002890D1F0BD8162704781621B
:10028000704781617047000008B50549496B01431B
:10029000034A51631146496B0140009100BF08BDFC
:1002A0000010024008B50549496B0143034A5163F8
:1002B0001146496B0140009100BF08BD001002408B
:1002C00070B504467D25ED0029462046FFF70EFF58
:1002D000401E04494861002088610520086100BF74
:1002E00070BD000000E000E010B5044600F0D0FB57
:1002F0002060206800F0A2FB6060606800F0B4FB42
:10030000A06010BDF8B504460025032C28D1204676
:1003100000F056F82104401A17D0012804D0022812
:1003200006D0032810D109E000F0B2FB054616E024
:1003300000F050F8012800D1204D10E000F054F8F2
:10034000012800D1C5030AE000BF00F0A1FB074669
:1003500000F074FB064600F087FB054600BF2AE06C
:100360000C2C28D1204600F02BF82104401A17D07D
:10037000042804D0082806D00C2810D109E000F089
:1003800087FB054616E000F025F8012800D10B4D4B
:1003900010E000F029F8012800D1C5030AE000BFF1
:1003A00000F076FB074600F049FB064600F05CFBD8
:1003B000054600BF00BF2846F8BD00000024F40039
:1003C00001460348406908400A0410437047000092
:1003D0004010024003480068012189020840800A59
:1003E00070470000001002400248C0690221084026
:1003F00040087047401002400248C0687021084021
:1004000070470000001002400248C0688007800F5B
:1004100070470000001002400348C0687F210902B5
:100420000840000A704700000010024030B5024644
:10043000012300BF1068402420408009002826D1F5
:100440004C6808682043CC6820430C6920434C6901
:1004500020438C692043CC6920430C6A20431468F4
:100460000E4D2C40204310604C69240C88682043BA
:1004700054680B4D2C40204350605C03086AA04236
:1004800004D1486A84B2146100BF00BF0023D06960
:100490000124E402A043D061184630BD4000FFFFB4
:1004A000FBF0FFFF017370470149086070470000CF
:1004B00004000020F0B585B004460D460127002653
:1004C000204600F061F8002851D12969A868084346
:1004D00069690843E96908432168264A11400843CD
:1004E0002060E86861680322120391430143616060
:1004F00000BFA869A168121191430143A16000BF28
:100500001D48844204D10320FFF7FCFE064616E096
:100510001A48844204D10C20FFF7F4FE06460EE090
:100520001748844204D101A8FFF7DEFE039E06E0CF
:100530001448844203D101A8FFF7D6FE039E002E83
:100540000CD06868002809D0002768680090314600
:100550002046EB692A6800F01FF800BF2868E16AAE
:100560000909090182B21143E16200BF00BF3846A8
:1005700005B0F0BDF369FFEF0038014000440040D2
:1005800000480040004C004001460868C007C00F0A
:100590000122504050407047FFB583B005461446D5
:1005A0000C9E0B2C2DD80121C9030698884219D125
:1005B0002006800D144A11580498FFF797FD40005B
:1005C0007108401831460190FFF790FD87B20F483F
:1005D000384002903807400F029908430290029871
:1005E000E8600EE02006800D074A11580498FFF7D6
:1005F0007DFD7108401831460190FFF777FD80B20C
:10060000E86007B0F0BD00005C110008F0FF0000DA
:1006100008B501460A4A1269009200BF0846421C0A
:10062000002A00D0401C07E0054A126901231B0480
:100630001A40002A00D0401E0028F5D108BD000055
:1006400000E000E000B587B0182101A8FFF76BFDBE
:100650000420FFF719FE2020FFF716FE0120FFF708
:1006600013FE0220FFF710FE0820FFF70DFE1021F9
:1006700005200007FFF703FE40212E48FFF7FFFD8E
:1006800080212C48FFF7FBFD20212B48FFF7F7FDC9
:10069000102001900120029000200390049005900A
:1006A00001A905200007FFF773FD012080020190DA
:1006B00000200290059001A91F48FFF769FD402026
:1006C000019001200290002003900490059001A960
:1006D0001848FFF75DFD8020019001200290002066
:1006E00003900490059001A91248FFF751FD2020C6
:1006F000019001200290002003900490059001A930
:100700000D48FFF745FDFF200130019000200290C9
:10071000059001A90848FFF73BFD01204002019028
:1007200000200290059001A90348FFF731FD07B0B2
:1007300000BD0000000800500004005000B591B05A
:10074000282107A8FFF7EFFC182101A8FFF7EBFC11
:1007500001200003374909680143364A11601146F8
:1007600009680140009100BF00BF012031494039B4
:10077000496B01432F4A403A51631146496B01408E
:10078000009100BF00BF20200190022002900020B5
:10079000039004900590069001A905200007FFF73B
:1007A000F7FC40200190022002900020039004906A
:1007B0000590069001A905200007FFF7E9FC8020BD
:1007C0000190022002900020039004900590069072
:1007D00001A905200007FFF7DBFC00200790FF20A0
:1007E0000530089007200002099000200A900B9025
:1007F000012040020C9010200D9000200E900F90D0
:100800000720109007A90C48FFF710FE00200A49A6
:100810004968102291430143074A516000BF00BF5D
:1008200010464068082108431146486000BF11B0D7
:1008300000BD0000401002400030014000B587B00C
:10084000182101A8FFF76FFC01204006FFF792FC7A
:100850000220FFF727FD0120FFF724FD0120C00340
:100860000190032002900020059001A90848FFF79D
:100870008FFCFF20013001900320029000200590A2
:1008800001A905200007FFF783FC07B000BD0000A9
:100890000004005000B587B0182101A8FFF743FC01
:1008A00001208006FFF766FC0820FFF7FBFC012013
:1008B0000190032002900020059001A90748FFF74E
:1008C00067FC04200190032002900020059001A9FC
:1008D0000248FFF75DFC07B000BD0000000C0050AF
:1008E00000B58FB0202107A8FFF71DFC182101A833
:1008F000FFF719FC032000044B494969020C91439E
:1009000082B21143484A516100BF01208003114661
:10091000096801431160114609680140009100BF58
:1009200000BF022040494039496B01433E4A403AEA
:1009300051631146496B0140009100BF00BF402048
:1009400001900220029000200390049005900690F0
:1009500001A93648FFF71CFC80200190022002907C
:100960000020039004900590069001A92F48FFF7FE
:100970000FFC00200790E120400208900020099021
:100980000A900B900C200C9000200D900E9007A95F
:100990002748FFF78FFD002025498968C900C9084D
:1009A00042071143224A916000BF00BF1146896887
:1009B000072252069143420611431D4A916000BF2F
:1009C00000BF1046006801214907884311460860AE
:1009D00000BF00BF084640680921C902884311468C
:1009E0004860084680682A2188431146886000BF15
:1009F00000BF08460068012108431146086000BF97
:100A000000BF00BF0A48C069012149050840400DE8
:100A10000028F6D000BF0648C06949000840800D94
:100A20000028EED00FB000BD40100240000400507E
:100A30000038014000BFFEE770470000014600BFDC
:100A4000074880680F22120210401040000A800000
:100A5000044A105CC206D20E0846D040704700001F
:100A6000001002408C110008014600BF0648806853
:100A7000072212031040000B8000044A105CC206DB
:100A8000D20E0846D040704700100240CC1100083A
:100A900070B500BF114880683821084000280BD08D
:100AA000082802D0102806D101E00D4C12E000F019
:100AB00019F804460EE000BF084800680721C90283
:100AC0000840C10A01258D4029460548FFF70EFB65
:100AD000044600BF00BF204670BD00000010024069
:100AE0000024F400FEB5FFF78FFC01900198022866
:100AF00002D0032804D101E00D4C03E00C4C01E0CE
:100B00000B4C00BF00BF00BF0A48C068400F451C27
:100B1000FFF772FC0009471CFFF77EFC6043394673
:100B20000090FFF7E3FA06462946FFF7DFFAFEBD1D
:100B30000024F400001002407047704770B5022096
:100B40003C490968C908C90001433A4A116000BF1D
:100B500000BF00BF374800684007400F0228F8D1A7
:100B600000BF354800680121090408433249086084
:100B700000BF00BF00BF30480068012149040840A1
:100B8000400C0028F6D003200021082293060446DA
:100B90000C4315022C431C43274DED68274E35406E
:100BA0002C43254DEC6000BF00BF2846006851056E
:100BB00008432946086000BF00BF0846C068090412
:100BC00008432946C86000BF00BF00BF1A4800683C
:100BD000012149060840400E0028F6D000201649A1
:100BE00089680F22120291430143134A916000BFAA
:100BF000022011468968C908C9000143916000BFFD
:100C000000BF00BF0C488068382108401028F8D188
:100C10000020094989680722120391430143064ACB
:100C2000916000BF0648FFF74BFB0548FFF73CFC0F
:100C300070BD000000200240001002408C80FF1FA9
:100C40000090D0030120C006014988607047000071
:100C500000ED00E0FEB504460D4616461F462B4843
:100C6000008884420BDA2A480088854207DA274840
:100C70000088864203DA26480088874200DBFEBDF2
:100C8000B44203DD20B2344686B200BFBD4203DD6C
:100C900028B23D4687B200BF3B4632462946204631
:100CA00000F066F808980112684601710898C1B210
:100CB0006846417180211748FFF7E3FA0020009051
:100CC0001AE0684601791448FFF7ECFB00BF1248B0
:100CD0008068802108400028F9D1684641790E4893
:100CE000FFF7E0FB00BF0C48806880210840002827
:100CF000F9D10098401C0090301B401C791B491C06
:100D0000484300998842DCD800BFB8E700000020C3
:100D100002000020000800500030014038B50446B1
:100D2000064800940088401E83B205480088401E93
:100D300082B200210846FFF78DFF38BD0200002077
:100D40000000002010B5044680210748FFF795FAFF
:100D500021460648FFF7A6FB00BF044880688021B3
:100D600008400028F9D110BD0008005000300140B3
:100D7000F8B504460D4616461F462A20FFF7E2FF47
:100D80002004010E6846017044703004010E68466C
:100D90008170C670042100F015F82B20FFF7D2FFF8
:100DA0002804010E6846017045703804010E68463B
:100DB0008170C770042100F005F82C20FFF7C2FFF6
:100DC000F8BD0000F8B505460C4680211048FFF735
:100DD00058FA1AE00120C003844200D900E02046FE
:100DE00086B200270CE0E95D0A48FFF75BFB00BF15
:100DF00008488068802108400028F9D1781C07B293
:100E0000A742F0D3AD19A41B00BF002CE2D1F8BD5E
:100E100000080050003001407FB504460D46102107
:100E200005200007FFF729FA00F02CF90120FFF751
:100E300089FF7D20C000FFF7EBFB39216846017078
:100E40002C214170002181703421C1700221017177
:100E5000CB20FFF777FF05216846FFF7B3FF00219E
:100E600068460170C121417030218170CF20FFF7A9
:100E700069FF03216846FFF7A5FF852168460170D9
:100E80000021417078218170E820FFF75BFF03218A
:100E90006846FFF797FF0021684601704170EA201D
:100EA000FFF750FF02216846FFF78CFF6421684678
:100EB000017003214170122181708121C170ED20E8
:100EC000FFF740FF04216846FFF77CFF20216846BA
:100ED0000170F720FFF736FF01216846FFF772FF28
:100EE000102168460170C020FFF72CFF01216846E1
:100EF000FFF768FF102168460170C120FFF722FF4D
:100F000001216846FFF75EFF3E21684601702821F7
:100F10004170C520FFF716FF02216846FFF752FF18
:100F2000862168460170C720FFF70CFF0121684643
:100F3000FFF748FF4821684601703620FFF702FF9F
:100F400001216846FFF73EFF5521684601703A20AF
:100F5000FFF7F8FE01216846FFF734FF00216846DD
:100F6000017018214170B120FFF7ECFE02216846A4
:100F7000FFF728FF08216846017082214170272170
:100F80008170B620FFF7DEFE03216846FFF71AFFE7
:100F9000002168460170F220FFF7D4FE0121684667
:100FA000FFF710FF0121684601702620FFF7CAFEF7
:100FB00001216846FFF706FF0F21684601703121C5
:100FC00041702B2181700C21C1700E21017108210B
:100FD00041714E218171F121C171372101720721C7
:100FE0004172102181720321C1720E210173092106
:100FF000417300218173E020FFF7A4FE0F216846B2
:10100000FFF7E0FE0021684601700E2141701421B7
:1010100081700321C17011210171072141713121BA
:101020008171C121C17148210172082141720F21D2
:1010300081720C21C17231210173362141730F215C
:101040008173E120FFF77EFE0F216846FFF7BAFEAD
:101050001120FFF777FE9620FFF7DAFA482168465D
:1010600001702920FFF76EFE01216846FFF7AAFEF6
:1010700002480480024805807FBD00000000002077
:101080000200002010B540210548FFF7F6F80520C2
:10109000FFF7BEFA40210248FFF7F3F810BD000049
:1010A0000008005002E008C8121F08C1002AFAD147
:1010B00070477047002001E001C1121F002AFBD1D8
:1010C0007047000008B50120214909680143204A02
:1010D0001160114609680140009100BF00BF000780
:1010E0001B494039C96B0143194A403AD163114643
:1010F000C96B0140009100BF00BF80141549096809
:101100000143144A116000BFFFF718FDFFF79AFA78
:10111000FFF714FBFFF792FBFFF7BCFBFFF7E0FBC9
:1011200000BF0D480068402108430B49086000BF1C
:10113000FFF718F8FFF7A6FFFF214131F020FFF776
:101140006BFE1F20C002FFF7E9FD00BFFEE70000B5
:10115000401002400000014000300140010000004A
:10116000020000000400000006000000080000006B
:101170000A0000000C000000100000002000000029
:10118000400000008000000000010000000000009E
:10119000000000000000000000000000000000004F
:1011A000000000000000000000000000010000003E
:1011B0000200000003000000040000000600000020
:1011C0000700000008000000090000000000000007
:1011D000000000000000000000000000010000000E
:1011E0000200000003000000040000000C120008D0
:1011F0000000002008000000A410000814120008DD
:101200000800002000040000B410000800000000E6
:041210000024F400C2
:04000005080000BD32
:00000001FF
