:020000040800F2
:1000000008040020D1000008A109000861010008CF
:1000100000000000000000000000000000000000E0
:10002000000000000000000000000000A50A000819
:100030000000000000000000A5090008A70A000851
:10004000E3000008E3000008E3000008E300000804
:10005000E3000008E3000008E3000008E3000008F4
:10006000E3000008E3000008E3000008E3000008E4
:10007000E3000008E3000008E3000008E3000008D4
:10008000E3000008E3000008E3000008E3000008C4
:10009000E3000008E3000008E3000008E3000008B4
:1000A000E3000008E3000008E3000008E3000008A4
:1000B000E3000008E3000008E30000080348854669
:1000C00000F03CF800480047E10B0008080400205D
:1000D0000448804704480047FEE7FEE7FEE7FEE7E6
:1000E000FEE7FEE7B10B0008BD00000830B50B4687
:1000F000014600202022012409E00D46D5409D4202
:1001000005D31D469540491B254695404019154687
:10011000521E002DF1DC30BDD2B201E00270401C55
:10012000491EFBD270470022F6E710B513460A4677
:1001300004461946FFF7F0FF204610BD064C012586
:10014000064E05E0E36807CC2B430C3C984710347F
:10015000B442F7D3FFF7B6FFE40C0008040D000823
:1001600000BFFEE708B50549C96B0143034AD163E7
:100170001146C96B0140009100BF08BD001002404C
:10018000F0B502460B4600266AE00124B440196827
:100190002140002963D05868012802D058680228FD
:1001A00015D1986894680D464D436F00ED19AC4326
:1001B0000D464D4345432C43946000BFD8685468B6
:1001C0008C430D4645432C43546000BF00BF186963
:1001D000D4680D464D436F00ED19AC430D464D43B9
:1001E00045432C43D46000BF5868022829D1FF2919
:1001F00011D85869146A0D464D434D434D432F01A4
:100200007D1BAC430D464D434D434D4345432C436D
:10021000146200BF15E05F69080A40430C0A60439E
:100220000C0A60430401241A506AA0430C0A644378
:100230000D0A6C430D0A6C437C432043506200BF9F
:1002400000BF586814680D464D436F00ED19AC436C
:100250000D464D4345432C43146000BF00BF761C40
:100260001868F040002890D1F0BD8162704700000E
:1002700008B50549496B0143034A51631146496B6F
:100280000140009100BF08BD0010024008B50549BB
:10029000496B0143034A51631146496B0140009188
:1002A00000BF08BD0010024070B504467D25ED007A
:1002B00029462046FFF71AFF401E044948610020E6
:1002C00088610520086100BF70BD000000E000E00B
:1002D00010B5044600F092FB2060206800F064FB3B
:1002E0006060606800F076FBA06010BDF8B5044661
:1002F0000025032C28D1204600F056F82104401A8E
:1003000017D0012804D0022806D0032810D109E014
:1003100000F074FB054616E000F050F8012800D10B
:10032000204D10E000F054F8012800D1C5030AE088
:1003300000BF00F063FB074600F036FB064600F006
:1003400049FB054600BF2AE00C2C28D1204600F0CE
:100350002BF82104401A17D0042804D0082806D00E
:100360000C2810D109E000F049FB054616E000F02A
:1003700025F8012800D10B4D10E000F029F80128E4
:1003800000D1C5030AE000BF00F038FB074600F0CB
:100390000BFB064600F01EFB054600BF00BF2846CB
:1003A000F8BD00000024F4000146034840690840FD
:1003B0000A041043704700004010024003480068E0
:1003C000012189020840800A7047000000100240A5
:1003D0000248C069022108404008704740100240AE
:1003E0000248C068702108407047000000100240B9
:1003F0000248C0688007800F70470000001002406C
:100400000348C0687F2109020840000A70470000C5
:100410000010024030B50246012300BF106840249E
:1004200020408009002826D14C6808682043CC6809
:1004300020430C6920434C6920438C692043CC69DC
:1004400020430C6A204314680E4D2C40204310605A
:100450004C69240C8868204354680B4D2C40204381
:1004600050605C03086AA04204D1486A84B21461F7
:1004700000BF00BF0023D0690124E402A043D06183
:10048000184630BD4000FFFFFBF0FFFF0149086048
:100490007047000000000020F0B585B004460D460E
:1004A00001270026204600F061F8002851D1296973
:1004B000A868084369690843E96908432168264A2E
:1004C000114008432060E8686168032212039143E9
:1004D0000143616000BFA869A16812119143014303
:1004E000A16000BF1D48844204D10320FFF7FEFE37
:1004F000064616E01A48844204D10C20FFF7F6FEA7
:1005000006460EE01748844204D101A8FFF7E0FE3A
:10051000039E06E01448844203D101A8FFF7D8FEE9
:10052000039E002E0CD06868002809D00027686858
:10053000009031462046EB692A6800F01FF800BFA2
:100540002868E16A0909090182B21143E16200BF2A
:1005500000BF384605B0F0BDF369FFEF0038014039
:100560000044004000480040004C0040014608683C
:10057000C007C00F0122504050407047FFB583B004
:10058000054614460C9E0B2C2DD80121C903069854
:10059000884219D12006800D144A11580498FFF79B
:1005A000A5FD40007108401831460190FFF79EFDFF
:1005B00087B20F48384002903807400F029908432D
:1005C00002900298E8600EE02006800D074A11585C
:1005D0000498FFF78BFD7108401831460190FFF732
:1005E00085FD80B2E86007B0F0BD0000540C000843
:1005F000F0FF000000B587B0182101A8FFF793FDB8
:100600000420FFF735FE2020FFF732FE0120FFF720
:100610002FFE0220FFF72CFE0820FFF729FE1021F5
:1006200005200007FFF721FE20211E48FFF71DFED1
:10063000102001900120029000200390049005906A
:1006400001A905200007FFF79BFD01208002019012
:1006500000200290059001A91248FFF791FD20208B
:10066000019001200290002003900490059001A9C0
:100670000C48FFF785FDFF2001300190002002901B
:10068000059001A90748FFF77BFD0120400201907A
:1006900000200290059001A90248FFF771FD07B004
:1006A00000BD00000004005000B591B0282107A84B
:1006B000FFF739FD182101A8FFF735FD01200003E0
:1006C000374909680143364A1160114609680140FB
:1006D000009100BF00BF012031494039496B0143FF
:1006E0002F4A403A51631146496B0140009100BFC7
:1006F00000BF20200190022002900020039004906F
:100700000590069001A905200007FFF739FD40205C
:100710000190022002900020039004900590069022
:1007200001A905200007FFF72BFD80200190022082
:1007300002900020039004900590069001A90520E6
:100740000007FFF71DFD00200790FF2005300890EF
:1007500007200002099000200A900B90012040021F
:100760000C9018200D9000200E900F9007201090F4
:1007700007A90C48FFF74EFE00200A4949681022DD
:1007800091430143074A516000BF00BF10464068D3
:10079000082108431146486000BF11B000BD0000A9
:1007A000401002400030014000B587B0182101A878
:1007B000FFF7B9FC01204006FFF7D4FC0220FFF749
:1007C00065FD0120FFF762FD0120C00301900320B9
:1007D00002900020059001A90848FFF7D1FCFF20F6
:1007E00001300190032002900020059001A905200E
:1007F0000007FFF7C5FC07B000BD00000004005073
:1008000000B587B0182101A8FFF78DFC01208006F4
:10081000FFF7A8FC0820FFF739FD01200190032015
:1008200002900020059001A90748FFF7A9FC0420C9
:100830000190032002900020059001A90248FFF7D3
:100840009FFC07B000BD0000000C005000B58FB049
:10085000202107A8FFF767FC182101A8FFF763FC18
:10086000032000044B494969020C914382B21143B1
:10087000484A516100BF01208003114609680143C5
:100880001160114609680140009100BF00BF0220BD
:1008900040494039496B01433E4A403A5163114651
:1008A000496B0140009100BF00BF40200190022031
:1008B00002900020039004900590069001A936480C
:1008C000FFF75EFC80200190022002900020039040
:1008D00004900590069001A92F48FFF751FC0020D5
:1008E0000790E12040020890002009900A900B90A8
:1008F0000C200C9000200D900E9007A92748FFF7C0
:10090000CBFD002025498968C900C9084207114369
:10091000224A916000BF00BF114689680722520633
:100920009143420611431D4A916000BF00BF10462B
:1009300000680121490788431146086000BF00BFD5
:10094000084640680921C9028843114648600846A4
:1009500080682A2188431146886000BF00BF08468E
:100960000068012108431146086000BF00BF00BFB6
:100970000A48C069012149050840400D0028F6D009
:1009800000BF0648C06949000840800D0028EED02D
:100990000FB000BD4010024000040050003801407C
:1009A00000BFFEE770470000014600BF07488068AF
:1009B0000F22120210401040000A8000044A105C0E
:1009C000C206D20E0846D040704700000010024018
:1009D000840C0008014600BF064880680722120305
:1009E0001040000B8000044A105CC206D20E08467C
:1009F000D040704700100240C40C000870B500BF22
:100A0000114880683821084000280BD0082802D0FF
:100A1000102806D101E00D4C12E000F019F8044650
:100A20000EE000BF084800680721C9020840C10A5B
:100A300001258D4029460548FFF758FB044600BFB5
:100A400000BF204670BD0000001002400024F400EA
:100A5000FEB5FFF7CDFC01900198022802D00328D3
:100A600004D101E00D4C03E00C4C01E00B4C00BF45
:100A700000BF00BF0A48C068400F451CFFF7B0FC2C
:100A80000009471CFFF7BCFC604339460090FFF7A4
:100A90002DFB06462946FFF729FBFEBD0024F40086
:100AA000001002407047704770B502203C49096849
:100AB000C908C90001433A4A116000BF00BF00BF26
:100AC000374800684007400F0228F8D100BF35487A
:100AD00000680121090408433249086000BF00BFD3
:100AE00000BF30480068012149040840400C00283C
:100AF000F6D0032000210822930604460C43150279
:100B00002C431C43274DED68274E35402C43254D83
:100B1000EC6000BF00BF2846006851050843294625
:100B2000086000BF00BF0846C068090408432946A2
:100B3000C86000BF00BF00BF1A4800680121490615
:100B40000840400E0028F6D00020164989680F2280
:100B5000120291430143134A916000BF02201146E3
:100B60008968C908C9000143916000BF00BF00BF88
:100B70000C488068382108401028F8D10020094925
:100B800089680722120391430143064A916000BF1E
:100B90000648FFF789FB0548FFF778FC70BD0000A9
:100BA00000200240001002408C80FF1F0090D00304
:100BB0000120C006014988607047000000ED00E098
:100BC000704702E008C8121F08C1002AFAD1704716
:100BD0007047002001E001C1121F002AFBD17047BD
:100BE00008B50120194909680143184A11601146E6
:100BF00009680140009100BF00BF00071349403958
:100C0000C96B0143114A403AD1631146C96B014097
:100C1000009100BF00BF80140D49096801430C4AD0
:100C2000116000BFFFF740FFFFF7E4FCFFF73CFD5A
:100C3000FFF7BAFDFFF7E4FDFFF708FEFF214131A2
:100C4000F020FFF7BDFF00BFFEE7000040100240AC
:100C5000000001400100000002000000040000004C
:100C600006000000080000000A0000000C00000060
:100C70001000000020000000400000008000000084
:100C80000001000000000000000000000000000063
:100C90000000000000000000000000000000000054
:100CA000000000000100000002000000030000003E
:100CB000040000000600000007000000080000001B
:100CC000090000000000000000000000000000001B
:100CD000000000000100000002000000030000000E
:100CE00004000000040D00080000002004000000C3
:100CF000C20B0008080D00080400002004040000D6
:080D0000D20B00080024F400EE
:04000005080000BD32
:00000001FF
